:100000000C94AA000C94B4000C94B4000C94B400AA
:100010000C94B4000C94B4000C94B4000C94B40090
:100020000C94B4000C94B4000C94B4000C94B40080
:100030000C94B4000C94B4000C94B4000C94B40070
:100040000C94B4000C94B4000C94B4000C94B40060
:100050000C94B400D902DE02E302E802ED02F202DF
:10006000F702FC02010306030B03100315031A0336
:100070001F03240329032E03330338033D034203E4
:1000800047034C03510356035B03600365036A0394
:100090006F0374039A039F03A403A903AE03B3037E
:1000A000B803BD03C203C703CC03D103D603DB03EC
:1000B000E003E503EA03EF03F403F903FE0303049B
:1000C00008040D04120417041C04210426042B0444
:1000D000300435045B045F04630467046B046F043D
:1000E000730477047B047F04830487048B048F04E8
:1000F000930497049B049F04A304A704AB04AF04D8
:10010000B304B704BB04BF04C304C704CB04CF04C7
:10011000D304D70404051405240534054405540507
:100120006405740584059405A405B405C405D405C7
:10013000E405F405040614062406340644065406B1
:100140006406740684069406A406B406C406D4069F
:10015000E406F40611241FBECFE5D8E0DEBFCDBF14
:100160000E9449070C9466070C940000CF93DF931C
:10017000CDB7DEB78AE390E02FE0FC01208387E370
:1001800090E0FC01108284E390E0FC01108281E3A6
:1001900090E0FC0110820000DF91CF910895CF9391
:1001A000DF9300D0CDB7DEB789836A838A8181303F
:1001B00009F074C089818830A8F48BE390E02BE3C8
:1001C00030E0F9012081622F2981422F50E021E0A7
:1001D00030E002C0220F331F4A95E2F7262BFC01C4
:1001E0002083D6C089818830D8F089818031C0F4DD
:1001F00088E390E028E330E0F9012081622F298133
:10020000222F30E0A9014850510921E030E002C01E
:10021000220F331F4A95E2F7262BFC012083B8C03A
:1002200089818031D8F089818831C0F485E390E0FC
:1002300025E330E0F9012081622F2981222F30E06F
:10024000A9014051510921E030E002C0220F331FC3
:100250004A95E2F7262BFC0120839AC089818831D8
:1002600008F496C08981803208F092C082E390E061
:1002700022E330E0F9012081622F2981222F30E032
:10028000A9014051510921E030E002C0220F331F83
:100290004A95E2F7262BFC0120837AC08A818823C5
:1002A00009F076C089818830B0F48BE390E02BE3CD
:1002B00030E0F9012081622F2981422F50E021E0B6
:1002C00030E002C0220F331F4A95E2F72095262323
:1002D000FC0120835DC089818830E0F08981803114
:1002E000C8F488E390E028E330E0F9012081622F30
:1002F0002981222F30E0A9014850510921E030E046
:1003000002C0220F331F4A95E2F720952623FC01F5
:1003100020833EC089818031E0F089818831C8F432
:1003200085E390E025E330E0F9012081622F298107
:10033000222F30E0A9014051510921E030E002C0F4
:10034000220F331F4A95E2F720952623FC012083D4
:100350001FC089818831E0F089818032C8F482E34E
:1003600090E022E330E0F9012081622F2981222FE1
:1003700030E0A9014051510921E030E002C0220FD4
:10038000331F4A95E2F720952623FC01208300C005
:1003900000000F900F90DF91CF910895CF93DF93DE
:1003A00000D0CDB7DEB78A838A81883088F489E3AC
:1003B00090E0FC018081882F90E02A81222F30E09C
:1003C00002C0959587952A95E2F7817089834AC086
:1003D0008A818830B0F08A81803198F486E390E099
:1003E000FC018081882F90E02A81222F30E0285064
:1003F000310902C0959587952A95E2F78170898326
:1004000031C08A818031B0F08A81883198F483E3E9
:1004100090E0FC018081882F90E02A81222F30E03B
:100420002051310902C0959587952A95E2F7817090
:10043000898318C08A818831A8F08A81803290F43B
:1004400080E390E0FC018081882F90E02A81222FB8
:1004500030E02051310902C0959587952A95E2F741
:100460008170898389810F900F90DF91CF910895DA
:10047000CF93DF931F92CDB7DEB789838981883010
:10048000A8F48BE390E02BE330E0F9012081622FA8
:100490002981422F50E021E030E002C0220F331FBB
:1004A0004A95E2F72627FC0120835AC089818830CB
:1004B000D8F089818031C0F488E390E028E330E00F
:1004C000F9012081622F2981222F30E0A9014850B3
:1004D000510921E030E002C0220F331F4A95E2F7B4
:1004E0002627FC0120833CC089818031D8F0898196
:1004F0008831C0F485E390E025E330E0F901208104
:10050000622F2981222F30E0A9014051510921E0B9
:1005100030E002C0220F331F4A95E2F72627FC0184
:1005200020831EC089818831D8F089818032C0F44F
:1005300082E390E022E330E0F9012081622F2981FB
:10054000222F30E0A9014051510921E030E002C0E2
:10055000220F331F4A95E2F72627FC01208300C0B3
:1005600000000F90DF91CF910895CF93DF93CDB727
:10057000DEB70000DF91CF910895CF93DF931F92F4
:10058000CDB7DEB789838981882F90E0092E000CD2
:10059000AA0BBB0B40E050E02FE130E0841B950B31
:1005A0002817390708F4A5C0865D9F4FFC010C94FD
:1005B000600761E080E00E94CF009BC061E081E0C5
:1005C0000E94CF0096C061E082E00E94CF0091C0FF
:1005D00061E083E00E94CF008CC061E084E00E9473
:1005E000CF0087C061E085E00E94CF0082C061E05B
:1005F00086E00E94CF007DC061E087E00E94CF00CE
:1006000078C061E088E00E94CF0073C061E089E0BB
:100610000E94CF006EC061E08AE00E94CF0069C0F6
:1006200061E08BE00E94CF0064C061E08CE00E943A
:10063000CF005FC061E08DE00E94CF005AC061E052
:100640008EE00E94CF0055C061E08FE00E94CF0095
:1006500050C061E080E10E94CF004BC061E081E1C9
:100660000E94CF0046C061E082E10E94CF0041C0FD
:1006700061E083E10E94CF003CC061E084E10E9420
:10068000CF0037C061E085E10E94CF0032C061E059
:1006900086E10E94CF002DC061E087E10E94CF007B
:1006A00028C061E088E10E94CF0023C061E089E1B9
:1006B0000E94CF001EC061E08AE10E94CF0019C0F5
:1006C00061E08BE10E94CF0014C061E08CE10E94E8
:1006D000CF000FC061E08DE10E94CF000AC061E051
:1006E0008EE10E94CF0005C061E08FE10E94CF0043
:1006F000000000000F90DF91CF910895CF93DF931A
:100700001F92CDB7DEB789838981882F90E0092EAB
:10071000000CAA0BBB0B40E050E02FE130E0841B43
:10072000950B2817390708F4A5C0865B9F4FFC017D
:100730000C94600760E080E00E94CF009BC060E006
:1007400081E00E94CF0096C060E082E00E94CF006E
:1007500091C060E083E00E94CF008CC060E084E044
:100760000E94CF0087C060E085E00E94CF0082C079
:1007700060E086E00E94CF007DC060E087E00E94DC
:10078000CF0078C060E088E00E94CF0073C060E0D6
:1007900089E00E94CF006EC060E08AE00E94CF0036
:1007A00069C060E08BE00E94CF0064C060E08CE034
:1007B0000E94CF005FC060E08DE00E94CF005AC071
:1007C00060E08EE00E94CF0055C060E08FE00E94A4
:1007D000CF0050C060E080E10E94CF004BC060E0DD
:1007E00081E10E94CF0046C060E082E10E94CF001C
:1007F00041C060E083E10E94CF003CC060E084E142
:100800000E94CF0037C060E085E10E94CF0032C077
:1008100060E086E10E94CF002DC060E087E10E9489
:10082000CF0028C060E088E10E94CF0023C060E0D4
:1008300089E10E94CF001EC060E08AE10E94CF00E3
:1008400019C060E08BE10E94CF0014C060E08CE131
:100850000E94CF000FC060E08DE10E94CF000AC06F
:1008600060E08EE10E94CF0005C060E08FE10E9451
:10087000CF00000000000F90DF91CF910895CF933B
:10088000DF931F92CDB7DEB789838981882F90E0EF
:10089000092E000CAA0BBB0B40E050E02FE130E02A
:1008A000841B950B2817390708F485C086599F4F7C
:1008B000FC010C94600780E00E9438027CC081E05B
:1008C0000E94380278C082E00E94380274C083E03F
:1008D0000E94380270C084E00E9438026CC085E03B
:1008E0000E94380268C086E00E94380264C087E037
:1008F0000E94380260C088E00E9438025CC089E033
:100900000E94380258C08AE00E94380254C08BE02E
:100910000E94380250C08CE00E9438024CC08DE02A
:100920000E94380248C08EE00E94380244C08FE026
:100930000E94380240C080E10E9438023CC081E140
:100940000E94380238C082E10E94380234C083E13C
:100950000E94380230C084E10E9438022CC085E138
:100960000E94380228C086E10E94380224C087E134
:100970000E94380220C088E10E9438021CC089E130
:100980000E94380218C08AE10E94380214C08BE12C
:100990000E94380210C08CE10E9438020CC08DE128
:1009A0000E94380208C08EE10E94380204C08FE124
:1009B0000E943802000000000F90DF91CF9108954F
:1009C000CF93DF93CDB7DEB70000DF91CF910895CD
:1009D000CF93DF9300D0CDB7DEB78A838A81882F8B
:1009E00090E0092E000CAA0BBB0B40E050E02FE179
:1009F00030E0841B950B2817390708F444C286574A
:100A00009F4FFC010C94600780E00E94CE01813072
:100A100011F41982F9C180E00E94CE01882309F007
:100A2000F3C181E08983F0C181E00E94CE01813071
:100A300011F41982EBC181E00E94CE01882309F0F4
:100A4000E5C181E08983E2C182E00E94CE0181306C
:100A500011F41982DDC182E00E94CE01882309F0E1
:100A6000D7C181E08983D4C183E00E94CE01813067
:100A700011F41982CFC183E00E94CE01882309F0CE
:100A8000C9C181E08983C6C184E00E94CE01813062
:100A900011F41982C1C184E00E94CE01882309F0BB
:100AA000BBC181E08983B8C185E00E94CE0181305D
:100AB00011F41982B3C185E00E94CE01882309F0A8
:100AC000ADC181E08983AAC186E00E94CE01813058
:100AD00011F41982A5C186E00E94CE01882309F095
:100AE0009FC181E089839CC187E00E94CE01813053
:100AF00011F4198297C187E00E94CE01882309F082
:100B000091C181E089838EC188E00E94CE0181304D
:100B100011F4198289C188E00E94CE01882309F06E
:100B200083C181E0898380C189E00E94CE01813048
:100B300011F419827BC189E00E94CE01882309F05B
:100B400075C181E0898372C18AE00E94CE01813043
:100B500011F419826DC18AE00E94CE01882309F048
:100B600067C181E0898364C18BE00E94CE0181303E
:100B700011F419825FC18BE00E94CE01882309F035
:100B800059C181E0898356C18CE00E94CE01813039
:100B900011F4198251C18CE00E94CE01882309F022
:100BA0004BC181E0898348C18DE00E94CE01813034
:100BB00011F4198243C18DE00E94CE01882309F00F
:100BC0003DC181E089833AC18EE00E94CE0181302F
:100BD00011F4198235C18EE00E94CE01882309F0FC
:100BE0002FC181E089832CC18FE00E94CE0181302A
:100BF00011F4198227C18FE00E94CE01882309F0E9
:100C000021C181E089831EC180E10E94CE01813033
:100C100011F4198219C180E10E94CE01882309F0E4
:100C200013C181E0898310C181E10E94CE0181302E
:100C300011F419820BC181E10E94CE01882309F0D1
:100C400005C181E0898302C182E10E94CE01813029
:100C500011F41982FDC082E10E94CE01882309F0BF
:100C6000F7C081E08983F4C083E10E94CE01813026
:100C700011F41982EFC083E10E94CE01882309F0AC
:100C8000E9C081E08983E6C084E10E94CE01813021
:100C900011F41982E1C084E10E94CE01882309F099
:100CA000DBC081E08983D8C085E10E94CE0181301C
:100CB00011F41982D3C085E10E94CE01882309F086
:100CC000CDC081E08983CAC086E10E94CE01813017
:100CD00011F41982C5C086E10E94CE01882309F073
:100CE000BFC081E08983BCC087E10E94CE01813012
:100CF00011F41982B7C087E10E94CE01882309F060
:100D0000B1C081E08983AEC088E10E94CE0181300C
:100D100011F41982A9C088E10E94CE01882309F04C
:100D2000A3C081E08983A0C089E10E94CE01813007
:100D300011F419829BC089E10E94CE01882309F039
:100D400095C081E0898392C08AE10E94CE01813002
:100D500011F419828DC08AE10E94CE01882309F026
:100D600087C081E0898384C08BE10E94CE018130FD
:100D700011F419827FC08BE10E94CE01882309F013
:100D800079C081E0898376C08CE10E94CE018130F8
:100D900011F4198271C08CE10E94CE01882309F000
:100DA0006BC081E0898368C08DE10E94CE018130F3
:100DB00011F4198263C08DE10E94CE01882309F0ED
:100DC0005DC081E089835AC08EE10E94CE018130EE
:100DD00011F4198255C08EE10E94CE01882309F0DA
:100DE0004FC081E089834CC08FE10E94CE018130E9
:100DF00011F4198247C08FE10E94CE01882309F0C7
:100E000041C081E089833EC000003DC000003BC07E
:100E1000000039C0000037C0000035C0000033C0FA
:100E2000000031C000002FC000002DC000002BC00A
:100E3000000029C0000027C0000025C0000023C01A
:100E4000000021C000001FC000001DC000001BC02A
:100E5000000019C0000017C0000015C0000013C03A
:100E6000000011C000000FC000000DC000000BC04A
:100E7000000009C0000007C0000005C0000003C05A
:100E8000000001C0000089810F900F90DF91CF9189
:100E90000895CF93DF93CDB7DEB70E94B6000E94CE
:100EA000B5020E94E00488E00E94E804813021F449
:100EB00080E00E94BD02F7CF80E00E947E03F3CF66
:100EC000EE0FFF1F0590F491E02D0994F894FFCFE9
:00000001FF
