:100000000C94BE000C94C8000C94C8000C94C8005A
:100010000C94C8000C94C8000C94C8000C94C80040
:100020000C94C8000C94C8000C94C8000C94C80030
:100030000C94C8000C94C8000C94C8000C94C80020
:100040000C94C8000C94C8000C94C8000C94C80010
:100050000C94C8007E06830688068D0692069706D5
:100060009C06A106A606AB06B006B506BA06BF06F4
:10007000C406C906CE06D306D806DD06E206E706A4
:10008000EC06F106F606FB06000705070A070F0750
:10009000140719073F07440749074E075307580736
:1000A0005D07620767076C07710776077B078007A4
:1000B00085078A078F07940799079E07A307A80754
:1000C000AD07B207B707BC07C107C607CB07D00704
:1000D000D507DA070008040808080C0810081408F7
:1000E00018081C082008240828082C0830083408A0
:1000F00038083C084008440848084C085008540890
:1001000058085C086008640868086C08700874087F
:1001100078087C08B408D108EE080B0928094509BD
:1001200062097F099C09B909ED090A0A270A440AEC
:10013000610A7E0A9B0AB80AD50AF20A760B860B78
:10014000960BA60BB60BC60BD60BE60BF60B060CE6
:10015000160C260C360C460C560C660C760C860CCF
:10016000960CA60CB60CC60CD60CE60CF60C060DBE
:10017000160D260D360D460D560D660D11241FBEAB
:10018000CFE5D8E0DEBFCDBF0E947D0E0C945D119F
:100190000C940000CF93DF93CDB7DEB78AE390E0F5
:1001A0002FEFFC01208387E390E027E0FC01208310
:1001B00084E390E02FE7FC01208381E390E02FE7C8
:1001C000FC0120830000DF91CF910895CF93DF934E
:1001D00000D0CDB7DEB789836A838A81813009F088
:1001E00074C089818830A8F48BE390E02BE330E081
:1001F000F9012081622F2981422F50E021E030E077
:1002000002C0220F331F4A95E2F7262BFC01208300
:10021000D6C089818830D8F089818031C0F488E3E4
:1002200090E028E330E0F9012081622F2981222F1C
:1002300030E0A9014850510921E030E002C0220F0E
:10024000331F4A95E2F7262BFC012083B8C0898131
:100250008031D8F089818831C0F485E390E025E3CE
:1002600030E0F9012081622F2981222F30E0A9019D
:100270004051510921E030E002C0220F331F4A955E
:10028000E2F7262BFC0120839AC08981883108F48B
:1002900096C08981803208F092C082E390E022E328
:1002A00030E0F9012081622F2981222F30E0A9015D
:1002B0004051510921E030E002C0220F331F4A951E
:1002C000E2F7262BFC0120837AC08A81882309F07B
:1002D00076C089818830B0F48BE390E02BE330E086
:1002E000F9012081622F2981422F50E021E030E086
:1002F00002C0220F331F4A95E2F720952623FC0106
:1003000020835DC089818830E0F089818031C8F424
:1003100088E390E028E330E0F9012081622F298111
:10032000222F30E0A9014850510921E030E002C0FD
:10033000220F331F4A95E2F720952623FC012083E4
:100340003EC089818031E0F089818831C8F485E33D
:1003500090E025E330E0F9012081622F2981222FEE
:1003600030E0A9014051510921E030E002C0220FE4
:10037000331F4A95E2F720952623FC0120831FC0F6
:1003800089818831E0F089818032C8F482E390E08D
:1003900022E330E0F9012081622F2981222F30E011
:1003A000A9014051510921E030E002C0220F331F62
:1003B0004A95E2F720952623FC01208300C0000027
:1003C0000F900F90DF91CF910895CF93DF9300D0DE
:1003D000CDB7DEB78A838A81883088F489E390E0DC
:1003E000FC018081882F90E02A81222F30E002C01A
:1003F000959587952A95E2F7817089834AC08A810D
:100400008830B0F08A81803198F486E390E0FC0176
:100410008081882F90E02A81222F30E028503109F6
:1004200002C0959587952A95E2F78170898331C03E
:100430008A818031B0F08A81883198F483E390E03A
:10044000FC018081882F90E02A81222F30E020510A
:10045000310902C0959587952A95E2F781708983C5
:1004600018C08A818831A8F08A81803290F480E3B4
:1004700090E0FC018081882F90E02A81222F30E0DB
:100480002051310902C0959587952A95E2F7817030
:10049000898389810F900F90DF91CF910895CF9339
:1004A000DF931F92CDB7DEB7898389818830A8F4A6
:1004B0008BE390E02BE330E0F9012081622F29816A
:1004C000422F50E021E030E002C0220F331F4A9556
:1004D000E2F72627FC0120835AC089818830D8F0B2
:1004E00089818031C0F488E390E028E330E0F901AD
:1004F0002081622F2981222F30E0A9014850510923
:1005000021E030E002C0220F331F4A95E2F7262790
:10051000FC0120833CC089818031D8F089818831F9
:10052000C0F485E390E025E330E0F9012081622FFB
:100530002981222F30E0A9014051510921E030E00A
:1005400002C0220F331F4A95E2F72627FC012083C1
:100550001EC089818831D8F089818032C0F482E35D
:1005600090E022E330E0F9012081622F2981222FDF
:1005700030E0A9014051510921E030E002C0220FD2
:10058000331F4A95E2F72627FC01208300C00000B4
:100590000F90DF91CF910895CF93DF93CDB7DEB762
:1005A000E8970FB6F894DEBF0FBECDBF80E090E0B5
:1005B000A8EFB1E489839A83AB83BC8320E030E069
:1005C0004AEF54E469817A818B819C810E94C81032
:1005D000DC01CB018FA798ABA9ABBAAB20E030E030
:1005E00040E85FE36FA578A989A99AA90E94421003
:1005F00088232CF481E090E09CAB8BAB3FC020E0E3
:100600003FEF4FE757E46FA578A989A99AA90E94FF
:10061000C31018164CF520E030E040E251E4698147
:100620007A818B819C810E94C810DC01CB01BC01C6
:10063000CD010E944710DC01CB019CAB8BAB0FC0FE
:1006400088EC90E09EAB8DAB8DA99EA90197F1F748
:100650009EAB8DAB8BA99CA901979CAB8BAB8BA957
:100660009CA9892B69F714C06FA578A989A99AA9B3
:100670000E944710DC01CB019CAB8BAB8BA99CA9E2
:1006800098AF8FAB8FA998AD0197F1F798AF8FAB6B
:1006900088E20E94CA0480E090E0A0E8BFE38D8376
:1006A0009E83AF83B88720E030E04AEF54E46D8149
:1006B0007E818F8198850E94C810DC01CB018DA3BB
:1006C0009EA3AFA3B8A720E030E040E85FE36DA1B0
:1006D0007EA18FA198A50E94421088232CF481E06E
:1006E00090E09AA789A73FC020E03FEF4FE757E48B
:1006F0006DA17EA18FA198A50E94C31018164CF57C
:1007000020E030E040E251E46D817E818F81988568
:100710000E94C810DC01CB01BC01CD010E94471032
:10072000DC01CB019AA789A70FC088EC90E09CA7B9
:100730008BA78BA59CA50197F1F79CA78BA789A5F3
:100740009AA501979AA789A789A59AA5892B69F7E0
:1007500014C06DA17EA18FA198A50E944710DC0155
:10076000CB019AA789A789A59AA59EA78DA78DA534
:100770009EA50197F1F79EA78DA78CE00E94CA0461
:1007800080E090E0A0E8BFE389879A87AB87BC87C9
:1007900020E030E04AEF54E469857A858B859C85BA
:1007A0000E94C810DC01CB018B8F9C8FAD8FBE8F58
:1007B00020E030E040E85FE36B8D7C8D8D8D9E8D79
:1007C0000E94421088232CF481E090E098A38F8F40
:1007D0003FC020E03FEF4FE757E46B8D7C8D8D8D60
:1007E0009E8D0E94C31018164CF520E030E040E2C8
:1007F00051E469857A858B859C850E94C810DC014F
:10080000CB01BC01CD010E944710DC01CB0198A3B4
:100810008F8F0FC088EC90E09AA389A389A19AA139
:100820000197F1F79AA389A38F8D98A1019798A3B7
:100830008F8F8F8D98A1892B69F714C06B8D7C8D5C
:100840008D8D9E8D0E944710DC01CB0198A38F8F68
:100850008F8D98A19CA38BA38BA19CA10197F1F7ED
:100860009CA38BA381E00E94CA0480E090E0A0E0FA
:10087000B0E48D879E87AF87B88B20E030E04AEFE9
:1008800054E46D857E858F8598890E94C810DC01AF
:10089000CB01898B9A8BAB8BBC8B20E030E040E89E
:1008A0005FE369897A898B899C890E944210882339
:1008B0002CF481E090E09E8B8D8B3FC020E03FEFD9
:1008C0004FE757E469897A898B899C890E94C31014
:1008D00018164CF520E030E040E251E46D857E854D
:1008E0008F8598890E94C810DC01CB01BC01CD0125
:1008F0000E944710DC01CB019E8B8D8B0FC088ECD2
:1009000090E0988F8F8B8F89988D0197F1F7988F52
:100910008F8B8D899E8901979E8B8D8B8D899E896A
:10092000892B69F714C069897A898B899C890E940F
:100930004710DC01CB019E8B8D8B8D899E899A8F10
:10094000898F898D9A8D0197F1F79A8F898F000091
:10095000E8960FB6F894DEBF0FBECDBFDF91CF9102
:100960000895CF93DF931F92CDB7DEB7898361E0FF
:1009700080E10E94E60060E081E10E94E60089815A
:100980000E94FB0489810E94AD0500000F90DF9159
:10099000CF910895CF93DF931F92CDB7DEB78983B0
:1009A00060E080E10E94E60060E081E10E94E600F4
:1009B00089810E94FB0489810E94AD0500000F908F
:1009C000DF91CF910895CF93DF93CDB7DEB781E06C
:1009D0000E94CA040000DF91CF910895CF93DF9366
:1009E00000D0CDB7DEB789836A8300000F900F90E7
:1009F000DF91CF910895CF93DF93CDB7DEB72F97D7
:100A00000FB6F894DEBF0FBECDBF8F878F85881FCE
:100A10008827881F682F86E10E94E6008F858295CF
:100A20008695869583708170682F85E10E94E60027
:100A30008F858295869587708170682F84E10E94EA
:100A4000E6008F8582958F708170682F83E10E9408
:100A5000E60061E082E10E94E60080E090E0A0EA2A
:100A6000B0E489839A83AB83BC8320E030E04AEF13
:100A700054E469817A818B819C810E94C810DC01D9
:100A8000CB018D839E83AF83B88720E030E040E8C0
:100A90005FE36D817E818F8198850E94421088235B
:100AA0002CF481E090E09A8789873FC020E03FEFF7
:100AB0004FE757E46D817E818F8198850E94C31036
:100AC00018164CF520E030E040E251E469817A816B
:100AD0008B819C810E94C810DC01CB01BC01CD013F
:100AE0000E944710DC01CB019A8789870FC088ECF0
:100AF00090E09C878B878B859C850197F1F79C877D
:100B00008B8789859A8501979A87898789859A85B0
:100B1000892B69F714C06D817E818F8198850E9431
:100B20004710DC01CB019A87898789859A859E8742
:100B30008D878D859E850197F1F79E878D8760E073
:100B400082E10E94E60000002F960FB6F894DEBF07
:100B50000FBECDBFDF91CF910895CF93DF93CDB777
:100B6000DEB72F970FB6F894DEBF0FBECDBF8F87CD
:100B70008F858695869586958170682F86E10E947F
:100B8000E6008F85869586958170682F85E10E94A5
:100B9000E6008F8586958170682F84E10E94E600CB
:100BA0008F858170682F83E10E94E60061E082E119
:100BB0000E94E60080E090E0A0EAB0E489839A8396
:100BC000AB83BC8320E030E04AEF54E469817A8152
:100BD0008B819C810E94C810DC01CB018D839E8398
:100BE000AF83B88720E030E040E85FE36D817E812D
:100BF0008F8198850E94421088232CF481E090E038
:100C00009A8789873FC020E03FEF4FE757E46D8127
:100C10007E818F8198850E94C31018164CF520E0C4
:100C200030E040E251E469817A818B819C810E94AD
:100C3000C810DC01CB01BC01CD010E944710DC01D2
:100C4000CB019A8789870FC088EC90E09C878B87BF
:100C50008B859C850197F1F79C878B8789859A8581
:100C600001979A87898789859A85892B69F714C0A6
:100C70006D817E818F8198850E944710DC01CB01B8
:100C80009A87898789859A859E878D878D859E8598
:100C90000197F1F79E878D8760E082E10E94E60070
:100CA00000002F960FB6F894DEBF0FBECDBFDF91C8
:100CB000CF910895CF93DF93CDB7DEB70000DF91DA
:100CC000CF910895CF93DF931F92CDB7DEB789837D
:100CD0008981882F90E0092E000CAA0BBB0B40E005
:100CE00050E02FE130E0841B950B2817390708F4FA
:100CF000A5C0865D9F4FFC010C943C1061E080E034
:100D00000E94E6009BC061E081E00E94E60096C080
:100D100061E082E00E94E60091C061E083E00E9411
:100D2000E6008CC061E084E00E94E60087C061E0DC
:100D300085E00E94E60082C061E086E00E94E60055
:100D40007DC061E087E00E94E60078C061E088E055
:100D50000E94E60073C061E089E00E94E6006EC078
:100D600061E08AE00E94E60069C061E08BE00E94D9
:100D7000E60064C061E08CE00E94E6005FC061E0D4
:100D80008DE00E94E6005AC061E08EE00E94E6001D
:100D900055C061E08FE00E94E60050C061E080E154
:100DA0000E94E6004BC061E081E10E94E60046C07F
:100DB00061E082E10E94E60041C061E083E10E94BF
:100DC000E6003CC061E084E10E94E60037C061E0DB
:100DD00085E10E94E60032C061E086E10E94E60003
:100DE0002DC061E087E10E94E60028C061E088E153
:100DF0000E94E60023C061E089E10E94E6001EC077
:100E000061E08AE10E94E60019C061E08BE10E9486
:100E1000E60014C061E08CE10E94E6000FC061E0D2
:100E20008DE10E94E6000AC061E08EE10E94E600CA
:100E300005C061E08FE10E94E600000000000F9015
:100E4000DF91CF910895CF93DF931F92CDB7DEB797
:100E500089838981882F90E0092E000CAA0BBB0B97
:100E600040E050E02FE130E0841B950B2817390754
:100E700008F4A5C0865B9F4FFC010C943C1060E019
:100E800080E00E94E6009BC060E081E00E94E600F6
:100E900096C060E082E00E94E60091C060E083E0DE
:100EA0000E94E6008CC060E084E00E94E60087C0FB
:100EB00060E085E00E94E60082C060E086E00E947B
:100EC000E6007DC060E087E00E94E60078C060E058
:100ED00088E00E94E60073C060E089E00E94E600BE
:100EE0006EC060E08AE00E94E60069C060E08BE0CE
:100EF0000E94E60064C060E08CE00E94E6005FC0F3
:100F000060E08DE00E94E6005AC060E08EE00E9442
:100F1000E60055C060E08FE00E94E60050C060E04F
:100F200080E10E94E6004BC060E081E10E94E600A3
:100F300046C060E082E10E94E60041C060E083E1DB
:100F40000E94E6003CC060E084E10E94E60037C0F9
:100F500060E085E10E94E60032C060E086E10E9428
:100F6000E6002DC060E087E10E94E60028C060E056
:100F700088E10E94E60023C060E089E10E94E6006B
:100F80001EC060E08AE10E94E60019C060E08BE1CB
:100F90000E94E60014C060E08CE10E94E6000FC0F1
:100FA00060E08DE10E94E6000AC060E08EE10E94F0
:100FB000E60005C060E08FE10E94E600000000004E
:100FC0000F90DF91CF910895CF93DF931F92CDB70C
:100FD000DEB789838981882F90E0092E000CAA0B47
:100FE000BB0B40E050E02FE130E0841B950B28174D
:100FF000390708F485C086599F4FFC010C943C10BA
:1010000080E00E944F027CC081E00E944F0278C0C5
:1010100082E00E944F0274C083E00E944F0270C0C1
:1010200084E00E944F026CC085E00E944F0268C0BD
:1010300086E00E944F0264C087E00E944F0260C0B9
:1010400088E00E944F025CC089E00E944F0258C0B5
:101050008AE00E944F0254C08BE00E944F0250C0B1
:101060008CE00E944F024CC08DE00E944F0248C0AD
:101070008EE00E944F0244C08FE00E944F0240C0A9
:1010800080E10E944F023CC081E10E944F0238C0C3
:1010900082E10E944F0234C083E10E944F0230C0BF
:1010A00084E10E944F022CC085E10E944F0228C0BB
:1010B00086E10E944F0224C087E10E944F0220C0B7
:1010C00088E10E944F021CC089E10E944F0218C0B3
:1010D0008AE10E944F0214C08BE10E944F0210C0AF
:1010E0008CE10E944F020CC08DE10E944F0208C0AB
:1010F0008EE10E944F0204C08FE10E944F02000067
:1011000000000F90DF91CF910895CF93DF93CDB77B
:10111000DEB70000DF91CF910895CF93DF9300D029
:10112000CDB7DEB789836A838981882F90E08130CB
:10113000910521F0029709F43AC172C28A81882F81
:1011400090E0092E000CAA0BBB0B40E050E029E018
:1011500030E0841B950B2817390708F460C28657C6
:101160009F4FFC010C943C1060E080E00E94E60080
:1011700060E081E00E94E60060E082E00E94E6001C
:1011800060E083E00E94E60060E084E00E94E60008
:1011900060E085E00E94E60061E086E00E94E600F3
:1011A00005C161E080E00E94E60060E081E00E940D
:1011B000E60060E082E00E94E60061E083E00E94D9
:1011C000E60061E084E00E94E60061E085E00E94C4
:1011D000E60061E086E00E94E600E8C060E080E0B2
:1011E0000E94E60060E081E00E94E60061E082E0AB
:1011F0000E94E60060E083E00E94E60060E084E098
:101200000E94E60061E085E00E94E60060E086E082
:101210000E94E600CBC060E080E00E94E60060E053
:1012200081E00E94E60060E082E00E94E60060E06B
:1012300083E00E94E60061E084E00E94E60061E055
:1012400085E00E94E60060E086E00E94E600AEC015
:1012500061E080E00E94E60060E081E00E94E6003C
:1012600060E082E00E94E60061E083E00E94E60028
:1012700061E084E00E94E60060E085E00E94E60014
:1012800060E086E00E94E60091C060E080E00E949D
:10129000E60061E081E00E94E60060E082E00E94FA
:1012A000E60060E083E00E94E60061E084E00E94E6
:1012B000E60060E085E00E94E60060E086E00E94D3
:1012C000E60074C060E080E00E94E60061E081E03A
:1012D0000E94E60060E082E00E94E60060E083E0B9
:1012E0000E94E60060E084E00E94E60060E085E0A5
:1012F0000E94E60060E086E00E94E60057C060E0E1
:1013000080E00E94E60060E081E00E94E60060E08C
:1013100082E00E94E60061E083E00E94E60061E076
:1013200084E00E94E60061E085E00E94E60061E062
:1013300086E00E94E6003AC060E080E00E94E6009D
:1013400060E081E00E94E60060E082E00E94E6004A
:1013500060E083E00E94E60060E084E00E94E60036
:1013600060E085E00E94E60060E086E00E94E60022
:101370001DC060E080E00E94E60060E081E00E9425
:10138000E60060E082E00E94E60060E083E00E9408
:10139000E60061E084E00E94E60060E085E00E94F3
:1013A000E60060E086E00E94E600000038C18A8125
:1013B000882F90E0092E000CAA0BBB0B40E050E0F8
:1013C00029E030E0841B950B2817390708F428C161
:1013D0008C569F4FFC010C943C1060E088E00E940A
:1013E000E60060E089E00E94E60060E08AE00E949A
:1013F000E60060E08BE00E94E60060E08CE00E9486
:10140000E60060E08DE00E94E60061E08EE00E9470
:10141000E60006C161E088E00E94E60060E089E045
:101420000E94E60060E08AE00E94E60061E08BE056
:101430000E94E60061E08CE00E94E60061E08DE041
:101440000E94E60061E08EE00E94E600E9C060E0F4
:1014500088E00E94E60060E089E00E94E60061E02A
:101460008AE00E94E60060E08BE00E94E60060E017
:101470008CE00E94E60061E08DE00E94E60060E002
:101480008EE00E94E600CCC060E088E00E94E600AA
:1014900060E089E00E94E60060E08AE00E94E600E9
:1014A00060E08BE00E94E60061E08CE00E94E600D4
:1014B00061E08DE00E94E60060E08EE00E94E600C0
:1014C000AFC061E088E00E94E60060E089E00E9431
:1014D000E60060E08AE00E94E60061E08BE00E94A6
:1014E000E60061E08CE00E94E60060E08DE00E9492
:1014F000E60060E08EE00E94E60092C060E088E0D6
:101500000E94E60061E089E00E94E60060E08AE077
:101510000E94E60060E08BE00E94E60061E08CE063
:101520000E94E60060E08DE00E94E60060E08EE050
:101530000E94E60075C060E088E00E94E60061E07D
:1015400089E00E94E60060E08AE00E94E60060E038
:101550008BE00E94E60060E08CE00E94E60060E024
:101560008DE00E94E60060E08EE00E94E60058C038
:1015700060E088E00E94E60060E089E00E94E6000A
:1015800060E08AE00E94E60061E08BE00E94E600F5
:1015900061E08CE00E94E60061E08DE00E94E600E0
:1015A00061E08EE00E94E6003BC060E088E00E94BF
:1015B000E60060E089E00E94E60060E08AE00E94C8
:1015C000E60060E08BE00E94E60060E08CE00E94B4
:1015D000E60060E08DE00E94E60060E08EE00E94A0
:1015E000E6001EC060E088E00E94E60060E089E05E
:1015F0000E94E60060E08AE00E94E60060E08BE086
:101600000E94E60060E08CE00E94E60061E08DE070
:101610000E94E60060E08EE00E94E60001C000004B
:1016200000000F900F90DF91CF910895CF93DF933B
:101630001F92CDB7DEB789838981882F90E08130F2
:10164000910519F0029731F00AC061E087E00E942D
:10165000E60005C061E087E00E94E60000000000AF
:101660000F90DF91CF910895CF93DF931F92CDB765
:10167000DEB789838981882F90E08130910519F048
:10168000029731F00AC060E087E00E94E60005C0E2
:1016900060E087E00E94E600000000000F90DF910C
:1016A000CF910895CF93DF93CDB7DEB70000DF91E0
:1016B000CF910895CF93DF9300D0CDB7DEB78A8363
:1016C0008A81882F90E0092E000CAA0BBB0B40E00A
:1016D00050E02FE130E0841B950B2817390708F400
:1016E00044C282569F4FFC010C943C1080E00E9443
:1016F000E501813011F41982F9C180E00E94E50111
:10170000882309F0F3C181E08983F0C181E00E9460
:10171000E501813011F41982EBC181E00E94E501FD
:10172000882309F0E5C181E08983E2C182E00E945B
:10173000E501813011F41982DDC182E00E94E501EA
:10174000882309F0D7C181E08983D4C183E00E9456
:10175000E501813011F41982CFC183E00E94E501D7
:10176000882309F0C9C181E08983C6C184E00E9451
:10177000E501813011F41982C1C184E00E94E501C4
:10178000882309F0BBC181E08983B8C185E00E944C
:10179000E501813011F41982B3C185E00E94E501B1
:1017A000882309F0ADC181E08983AAC186E00E9447
:1017B000E501813011F41982A5C186E00E94E5019E
:1017C000882309F09FC181E089839CC187E00E9442
:1017D000E501813011F4198297C187E00E94E5018B
:1017E000882309F091C181E089838EC188E00E943D
:1017F000E501813011F4198289C188E00E94E50178
:10180000882309F083C181E0898380C189E00E9437
:10181000E501813011F419827BC189E00E94E50164
:10182000882309F075C181E0898372C18AE00E9432
:10183000E501813011F419826DC18AE00E94E50151
:10184000882309F067C181E0898364C18BE00E942D
:10185000E501813011F419825FC18BE00E94E5013E
:10186000882309F059C181E0898356C18CE00E9428
:10187000E501813011F4198251C18CE00E94E5012B
:10188000882309F04BC181E0898348C18DE00E9423
:10189000E501813011F4198243C18DE00E94E50118
:1018A000882309F03DC181E089833AC18EE00E941E
:1018B000E501813011F4198235C18EE00E94E50105
:1018C000882309F02FC181E089832CC18FE00E9419
:1018D000E501813011F4198227C18FE00E94E501F2
:1018E000882309F021C181E089831EC180E10E9423
:1018F000E501813011F4198219C180E10E94E501EE
:10190000882309F013C181E0898310C181E10E941D
:10191000E501813011F419820BC181E10E94E501DA
:10192000882309F005C181E0898302C182E10E9418
:10193000E501813011F41982FDC082E10E94E501C8
:10194000882309F0F7C081E08983F4C083E10E9415
:10195000E501813011F41982EFC083E10E94E501B5
:10196000882309F0E9C081E08983E6C084E10E9410
:10197000E501813011F41982E1C084E10E94E501A2
:10198000882309F0DBC081E08983D8C085E10E940B
:10199000E501813011F41982D3C085E10E94E5018F
:1019A000882309F0CDC081E08983CAC086E10E9406
:1019B000E501813011F41982C5C086E10E94E5017C
:1019C000882309F0BFC081E08983BCC087E10E9401
:1019D000E501813011F41982B7C087E10E94E50169
:1019E000882309F0B1C081E08983AEC088E10E94FC
:1019F000E501813011F41982A9C088E10E94E50156
:101A0000882309F0A3C081E08983A0C089E10E94F6
:101A1000E501813011F419829BC089E10E94E50142
:101A2000882309F095C081E0898392C08AE10E94F1
:101A3000E501813011F419828DC08AE10E94E5012F
:101A4000882309F087C081E0898384C08BE10E94EC
:101A5000E501813011F419827FC08BE10E94E5011C
:101A6000882309F079C081E0898376C08CE10E94E7
:101A7000E501813011F4198271C08CE10E94E50109
:101A8000882309F06BC081E0898368C08DE10E94E2
:101A9000E501813011F4198263C08DE10E94E501F6
:101AA000882309F05DC081E089835AC08EE10E94DD
:101AB000E501813011F4198255C08EE10E94E501E3
:101AC000882309F04FC081E089834CC08FE10E94D8
:101AD000E501813011F4198247C08FE10E94E501D0
:101AE000882309F041C081E089833EC000003DC0E9
:101AF00000003BC0000039C0000037C0000035C006
:101B0000000033C0000031C000002FC000002DC015
:101B100000002BC0000029C0000027C0000025C025
:101B2000000023C0000021C000001FC000001DC035
:101B300000001BC0000019C0000017C0000015C045
:101B4000000013C0000011C000000FC000000DC055
:101B500000000BC0000009C0000007C0000005C065
:101B6000000003C0000001C0000089810F900F90A9
:101B7000DF91CF910895CF93DF93CDB7DEB7609714
:101B80000FB6F894DEBF0FBECDBF888B8BE00E94EE
:101B90005A0B813009F0A7C088890E9423078AE088
:101BA0000E94620685E0898394C0698181E00E9479
:101BB0008D0881E60E94B1048DE60E94B10482E6A0
:101BC0000E94B10485E70E94B1048CE60E94B10432
:101BD00081E60E94B1048EE60E94B10483E60E9471
:101BE000B10485E60E94B10480E090E0AAE7B4E485
:101BF0008A839B83AC83BD8320E030E04AEF54E4CA
:101C00006A817B818C819D810E94C810DC01CB019F
:101C10008E839F83A887B98720E030E040E85FE3A8
:101C20006E817F81888599850E94421088232CF4DB
:101C300081E090E09B878A873FC020E03FEF4FE73D
:101C400057E46E817F81888599850E94C31018169C
:101C50004CF520E030E040E251E46A817B818C81E8
:101C60009D810E94C810DC01CB01BC01CD010E9406
:101C70004710DC01CB019B878A870FC088EC90E07E
:101C80009D878C878C859D850197F1F79D878C8733
:101C90008A859B8501979B878A878A859B85892B67
:101CA00069F714C06E817F81888599850E944710ED
:101CB000DC01CB019B878A878A859B859F878E87DE
:101CC0008E859F850197F1F79F878E878981815047
:101CD00089838981882309F068CF8AE00E942307DD
:101CE00088890E946206000060960FB6F894DEBFF5
:101CF0000FBECDBFDF91CF910895CF93DF93CDB7C6
:101D0000DEB7AD970FB6F894DEBF0FBECDBF0E9411
:101D1000CA000E9485080E945A060E94520B81E068
:101D20000E94160B0E94CC0288E00E94620689E0A5
:101D3000898388C0698181E00E948D0883E60E94C2
:101D4000B1048FE60E94B10483E60E94B10481E6EB
:101D50000E94B10488E00E94BB0D80E090E0AAE7F9
:101D6000B4E48C879D87AE87BF8720E030E04AEFE0
:101D700054E46C857D858E859F850E94C810DC01AA
:101D8000CB01888B998BAA8BBB8B20E030E040E89D
:101D90005FE3688979898A899B890E944210882338
:101DA0002CF481E090E09D8B8C8B3FC020E03FEFD6
:101DB0004FE757E4688979898A899B890E94C31013
:101DC00018164CF520E030E040E251E46C857D854A
:101DD0008E859F850E94C810DC01CB01BC01CD011E
:101DE0000E944710DC01CB019D8B8C8B0FC088ECCF
:101DF00090E09F8B8E8B8E899F890197F1F79F8B47
:101E00008E8B8C899D8901979D8B8C8B8C899D896C
:101E1000892B69F714C0688979898A899B890E940E
:101E20004710DC01CB019D8B8C8B8C899D89998F10
:101E3000888F888D998D0197F1F7998F888F898187
:101E4000815089838981882309F074CF88E00E94BA
:101E5000230789E00E94620685E08A837CC06A814C
:101E600081E00E948D0889E00E94BB0D80E090E037
:101E7000AAE7B4E488879987AA87BB8720E030E087
:101E80004AEF54E4688579858A859B850E94C8104D
:101E9000DC01CB018A8F9B8FAC8FBD8F20E030E0BF
:101EA00040E85FE36A8D7B8D8C8D9D8D0E94421092
:101EB00088232CF481E090E09F8F8E8F3FC020E03C
:101EC0003FEF4FE757E46A8D7B8D8C8D9D8D0E948F
:101ED000C31018164CF520E030E040E251E468856C
:101EE00079858A859B850E94C810DC01CB01BC01E5
:101EF000CD010E944710DC01CB019F8F8E8F0FC058
:101F000088EC90E099A388A388A199A10197F1F7A3
:101F100099A388A38E8D9F8D01979F8F8E8F8E8D15
:101F20009F8D892B69F714C06A8D7B8D8C8D9D8D5B
:101F30000E944710DC01CB019F8F8E8F8E8D9F8D6D
:101F40009BA38AA38AA19BA10197F1F79BA38AA3D4
:101F50008A8181508A838A81882309F080CF89E031
:101F60000E9423078AE00E94620689E08B837CC07E
:101F70006B8181E00E948D088AE00E94BB0D80E0A9
:101F800090E0AAE7B4E48C839D83AE83BF8320E016
:101F900030E04AEF54E46C817D818E819F810E9404
:101FA000C810DC01CB018CA39DA3AEA3BFA320E08E
:101FB00030E040E85FE36CA17DA18EA19FA10E946B
:101FC000421088232CF481E090E099A788A73FC0B5
:101FD00020E03FEF4FE757E46CA17DA18EA19FA1C8
:101FE0000E94C31018164CF520E030E040E251E4A6
:101FF0006C817D818E819F810E94C810DC01CB01A4
:10200000BC01CD010E944710DC01CB0199A788A734
:102010000FC088EC90E09BA78AA78AA59BA5019793
:10202000F1F79BA78AA788A599A5019799A788A7E3
:1020300088A599A5892B69F714C06CA17DA18EA1F3
:102040009FA10E944710DC01CB0199A788A788A512
:1020500099A59DA78CA78CA59DA50197F1F79DA794
:102060008CA78B8181508B838B81882309F080CF53
:102070008AE00E94230758CEEE0FFF1F0590F491CF
:10208000E02D09940E94761008F481E008950E94E2
:10209000A21088F09F5798F0B92F9927B751B0F048
:1020A000E1F0660F771F881F991F1AF0BA95C9F7DC
:1020B00014C0B13091F00E94BC10B1E008950C94AE
:1020C000BC10672F782F8827B85F39F0B93FCCF361
:1020D000869577956795B395D9F73EF49095809559
:1020E000709561957F4F8F4F9F4F0895990F00080E
:1020F000550FAA0BE0E8FEEF16161706E807F907DA
:10210000C0F012161306E407F50798F0621B730B74
:10211000840B950B39F40A2661F0232B242B252BF5
:1021200021F408950A2609F4A140A6958FEF811D98
:10213000811D089557FD9058440F551F59F05F3F7A
:1021400071F04795880F97FB991F61F09F3F79F0D9
:1021500087950895121613061406551FF2CF46955B
:10216000F1DF08C0161617061806991FF1CF8695DD
:102170007105610508940895E894BB2766277727C1
:10218000CB0197F908950E94761008F48FEF089517
:102190000E94DB100C944C110E943E1138F00E94FA
:1021A000451120F0952311F00C9435110C943B113E
:1021B00011240C94BD100E949A1070F3959FC1F3E6
:1021C000950F50E0551F629FF001729FBB27F00DE5
:1021D000B11D639FAA27F00DB11DAA1F649F66273A
:1021E000B00DA11D661F829F2227B00DA11D621F89
:1021F000739FB00DA11D621F839FA00D611D221F43
:10220000749F3327A00D611D231F849F600D211D26
:10221000822F762F6A2F11249F5750409AF0F1F0A9
:1022200088234AF0EE0FFF1FBB1F661F771F881F12
:1022300091505040A9F79E3F510580F00C94351104
:102240000C94BD105F3FE4F3983ED4F386957795E8
:102250006795B795F795E7959F5FC1F7FE2B880FB8
:10226000911D9695879597F9089597F99F6780E84E
:1022700070E060E008959FEF80EC089500240A94D8
:102280001616170618060906089500240A94121651
:102290001306140605060895092E0394000C11F484
:1022A000882352F0BB0F40F4BF2B11F460FF04C031
:0E22B0006F5F7F4F8F4F9F4F0895F894FFCFC1
:00000001FF
