:100000000C948A000C9494000C9494000C9494002A
:100010000C9494000C9494000C9494000C94940010
:100020000C9494000C9494000C9494000C94940000
:100030000C9494000C9494000C9494000C949400F0
:100040000C9494000C9494000C9494000C949400E0
:100050000C949400B902BE02C302C802CD02D202BF
:10006000D702DC02E102E602EB02F002F502FA023C
:10007000FF02040309030E03130318031D032203E5
:1000800027032C03310336033B03400345034A0394
:100090004F0354037A037F03840389038E0393037E
:1000A00098039D03A203A703AC03B103B603BB03EC
:1000B000C003C503CA03CF03D403D903DE03E3039C
:1000C000E803ED03F203F703FC03010406040B0449
:1000D000100415043B043F04430447044B044F043D
:1000E000530457045B045F04630467046B046F04E8
:1000F000730477047B047F04830487048B048F04D8
:10010000930497049B049F04A304A704AB04AF04C7
:10011000B304B70411241FBECFE5D8E0DEBFCDBFC6
:100120000E94C0040C94DA060C940000CF93DF9375
:10013000CDB7DEB78AE390E02FE0FC01208387E3B0
:1001400090E0FC01108284E390E0FC01108281E3E6
:1001500090E0FC0110820000DF91CF910895CF93D1
:10016000DF9300D0CDB7DEB789836A838A8181307F
:1001700009F074C089818830A8F48BE390E02BE308
:1001800030E0F9012081622F2981422F50E021E0E7
:1001900030E002C0220F331F4A95E2F7262BFC0104
:1001A0002083D6C089818830D8F089818031C0F41D
:1001B00088E390E028E330E0F9012081622F298173
:1001C000222F30E0A9014850510921E030E002C05F
:1001D000220F331F4A95E2F7262BFC012083B8C07B
:1001E00089818031D8F089818831C0F485E390E03D
:1001F00025E330E0F9012081622F2981222F30E0B0
:10020000A9014051510921E030E002C0220F331F03
:100210004A95E2F7262BFC0120839AC08981883118
:1002200008F496C08981803208F092C082E390E0A1
:1002300022E330E0F9012081622F2981222F30E072
:10024000A9014051510921E030E002C0220F331FC3
:100250004A95E2F7262BFC0120837AC08A81882305
:1002600009F076C089818830B0F48BE390E02BE30D
:1002700030E0F9012081622F2981422F50E021E0F6
:1002800030E002C0220F331F4A95E2F72095262363
:10029000FC0120835DC089818830E0F08981803154
:1002A000C8F488E390E028E330E0F9012081622F70
:1002B0002981222F30E0A9014850510921E030E086
:1002C00002C0220F331F4A95E2F720952623FC0136
:1002D00020833EC089818031E0F089818831C8F473
:1002E00085E390E025E330E0F9012081622F298148
:1002F000222F30E0A9014051510921E030E002C035
:10030000220F331F4A95E2F720952623FC01208314
:100310001FC089818831E0F089818032C8F482E38E
:1003200090E022E330E0F9012081622F2981222F21
:1003300030E0A9014051510921E030E002C0220F14
:10034000331F4A95E2F720952623FC01208300C045
:1003500000000F900F90DF91CF910895CF93DF931E
:1003600000D0CDB7DEB78A838A81883088F489E3EC
:1003700090E0FC018081882F90E02A81222F30E0DC
:1003800002C0959587952A95E2F7817089834AC0C6
:100390008A818830B0F08A81803198F486E390E0D9
:1003A000FC018081882F90E02A81222F30E02850A4
:1003B000310902C0959587952A95E2F78170898366
:1003C00031C08A818031B0F08A81883198F483E32A
:1003D00090E0FC018081882F90E02A81222F30E07C
:1003E0002051310902C0959587952A95E2F78170D1
:1003F000898318C08A818831A8F08A81803290F47C
:1004000080E390E0FC018081882F90E02A81222FF8
:1004100030E02051310902C0959587952A95E2F781
:100420008170898389810F900F90DF91CF9108951A
:10043000CF93DF931F92CDB7DEB789838981883050
:10044000A8F48BE390E02BE330E0F9012081622FE8
:100450002981422F50E021E030E002C0220F331FFB
:100460004A95E2F72627FC0120835AC0898188300B
:10047000D8F089818031C0F488E390E028E330E04F
:10048000F9012081622F2981222F30E0A9014850F3
:10049000510921E030E002C0220F331F4A95E2F7F4
:1004A0002627FC0120833CC089818031D8F08981D6
:1004B0008831C0F485E390E025E330E0F901208144
:1004C000622F2981222F30E0A9014051510921E0FA
:1004D00030E002C0220F331F4A95E2F72627FC01C5
:1004E00020831EC089818831D8F089818032C0F490
:1004F00082E390E022E330E0F9012081622F29813C
:10050000222F30E0A9014051510921E030E002C022
:10051000220F331F4A95E2F72627FC01208300C0F3
:1005200000000F90DF91CF910895CF93DF93CDB767
:10053000DEB70000DF91CF910895CF93DF931F9234
:10054000CDB7DEB789838981882F90E0092E000C12
:10055000AA0BBB0B40E050E02FE130E0841B950B71
:100560002817390708F4A5C0865D9F4FFC010C943D
:10057000B90561E080E00E94AF009BC061E081E0CE
:100580000E94AF0096C061E082E00E94AF0091C07F
:1005900061E083E00E94AF008CC061E084E00E94D3
:1005A000AF0087C061E085E00E94AF0082C061E0DB
:1005B00086E00E94AF007DC061E087E00E94AF004E
:1005C00078C061E088E00E94AF0073C061E089E01C
:1005D0000E94AF006EC061E08AE00E94AF0069C077
:1005E00061E08BE00E94AF0064C061E08CE00E949B
:1005F000AF005FC061E08DE00E94AF005AC061E0D3
:100600008EE00E94AF0055C061E08FE00E94AF0015
:1006100050C061E080E10E94AF004BC061E081E129
:100620000E94AF0046C061E082E10E94AF0041C07D
:1006300061E083E10E94AF003CC061E084E10E9480
:10064000AF0037C061E085E10E94AF0032C061E0D9
:1006500086E10E94AF002DC061E087E10E94AF00FB
:1006600028C061E088E10E94AF0023C061E089E119
:100670000E94AF001EC061E08AE10E94AF0019C075
:1006800061E08BE10E94AF0014C061E08CE10E9448
:10069000AF000FC061E08DE10E94AF000AC061E0D1
:1006A0008EE10E94AF0005C061E08FE10E94AF00C3
:1006B000000000000F90DF91CF910895CF93DF935A
:1006C0001F92CDB7DEB789838981882F90E0092EEC
:1006D000000CAA0BBB0B40E050E02FE130E0841B84
:1006E000950B2817390708F4A5C0865B9F4FFC01BE
:1006F0000C94B90560E080E00E94AF009BC060E010
:1007000081E00E94AF0096C060E082E00E94AF00EE
:1007100091C060E083E00E94AF008CC060E084E0A4
:100720000E94AF0087C060E085E00E94AF0082C0F9
:1007300060E086E00E94AF007DC060E087E00E943C
:10074000AF0078C060E088E00E94AF0073C060E056
:1007500089E00E94AF006EC060E08AE00E94AF00B6
:1007600069C060E08BE00E94AF0064C060E08CE094
:100770000E94AF005FC060E08DE00E94AF005AC0F1
:1007800060E08EE00E94AF0055C060E08FE00E9404
:10079000AF0050C060E080E10E94AF004BC060E05D
:1007A00081E10E94AF0046C060E082E10E94AF009C
:1007B00041C060E083E10E94AF003CC060E084E1A2
:1007C0000E94AF0037C060E085E10E94AF0032C0F8
:1007D00060E086E10E94AF002DC060E087E10E94EA
:1007E000AF0028C060E088E10E94AF0023C060E055
:1007F00089E10E94AF001EC060E08AE10E94AF0064
:1008000019C060E08BE10E94AF0014C060E08CE191
:100810000E94AF000FC060E08DE10E94AF000AC0EF
:1008200060E08EE10E94AF0005C060E08FE10E94B1
:10083000AF00000000000F90DF91CF910895CF939B
:10084000DF931F92CDB7DEB789838981882F90E02F
:10085000092E000CAA0BBB0B40E050E02FE130E06A
:10086000841B950B2817390708F485C086599F4FBC
:10087000FC010C94B90580E00E9418027CC081E064
:100880000E94180278C082E00E94180274C083E0BF
:100890000E94180270C084E00E9418026CC085E0BB
:1008A0000E94180268C086E00E94180264C087E0B7
:1008B0000E94180260C088E00E9418025CC089E0B3
:1008C0000E94180258C08AE00E94180254C08BE0AF
:1008D0000E94180250C08CE00E9418024CC08DE0AB
:1008E0000E94180248C08EE00E94180244C08FE0A7
:1008F0000E94180240C080E10E9418023CC081E1C1
:100900000E94180238C082E10E94180234C083E1BC
:100910000E94180230C084E10E9418022CC085E1B8
:100920000E94180228C086E10E94180224C087E1B4
:100930000E94180220C088E10E9418021CC089E1B0
:100940000E94180218C08AE10E94180214C08BE1AC
:100950000E94180210C08CE10E9418020CC08DE1A8
:100960000E94180208C08EE10E94180204C08FE1A4
:100970000E941802000000000F90DF91CF910895AF
:10098000CF93DF93CDB7DEB76C970FB6F894DEBF89
:100990000FBECDBF0E9496000E94950280E00E948B
:1009A0009D0280E090E0A6E9B3E489839A83AB835B
:1009B000BC8320E030E04AEF54E469817A818B8186
:1009C0009C810E944506DC01CB018B8B9C8BAD8BFF
:1009D000BE8B20E030E040E85FE36B897C898D8945
:1009E0009E890E94BF0588232CF481E090E0988FB7
:1009F0008F8B3FC020E03FEF4FE757E46B897C8946
:100A00008D899E890E94400618164CF520E030E042
:100A100040E251E469817A818B819C810E94450684
:100A2000DC01CB01BC01CD010E94C405DC01CB017E
:100A3000988F8F8B0FC088EC90E09A8F898F898D6B
:100A40009A8D0197F1F79A8F898F8F89988D0197E9
:100A5000988F8F8B8F89988D892B69F714C06B893C
:100A60007C898D899E890E94C405DC01CB01988F09
:100A70008F8B8F89988D9C8F8B8F8B8D9C8D019701
:100A8000F1F79C8F8B8F80E00E941F0480E090E044
:100A9000A6E9B3E48D839E83AF83B88720E030E07E
:100AA0004AEF54E46D817E818F8198850E944506CE
:100AB000DC01CB0189879A87AB87BC8720E030E0D7
:100AC00040E85FE369857A858B859C850E94BF0538
:100AD00088232CF481E090E09E878D873FC020E042
:100AE0003FEF4FE757E469857A858B859C850E94A7
:100AF000400618164CF520E030E040E251E46D81EC
:100B00007E818F8198850E944506DC01CB01BC0166
:100B1000CD010E94C405DC01CB019E878D870FC0EB
:100B200088EC90E0988B8F878F8598890197F1F7F3
:100B3000988B8F878D859E8501979E878D878D8564
:100B40009E85892B69F714C069857A858B859C857C
:100B50000E94C405DC01CB019E878D878D859E8513
:100B60009A8B898B89899A890197F1F79A8B898B5E
:100B700015CFEE0FFF1F0590F491E02D09940E9410
:100B8000F30508F481E008950E941F0688F09F573E
:100B900098F0B92F9927B751B0F0E1F0660F771FA1
:100BA000881F991F1AF0BA95C9F714C0B13091F097
:100BB0000E943906B1E008950C943906672F782F0A
:100BC0008827B85F39F0B93FCCF38695779567955C
:100BD000B395D9F73EF490958095709561957F4FC8
:100BE0008F4F9F4F0895990F0008550FAA0BE0E80B
:100BF000FEEF16161706E807F907C0F012161306DF
:100C0000E407F50798F0621B730B840B950B39F41E
:100C10000A2661F0232B242B252B21F408950A2684
:100C200009F4A140A6958FEF811D811D089557FD00
:100C30009058440F551F59F05F3F71F04795880F4A
:100C400097FB991F61F09F3F79F0879508951216E1
:100C500013061406551FF2CF4695F1DF08C016168D
:100C600017061806991FF1CF86957105610508943E
:100C70000895E894BB2766277727CB0197F9089555
:100C80000E94F30508F48FEF08950E9458060C9413
:100C9000C9060E94BB0638F00E94C20620F09523C8
:100CA00011F00C94B2060C94B80611240C943A0678
:100CB0000E94170670F3959FC1F3950F50E0551FE2
:100CC000629FF001729FBB27F00DB11D639FAA27A1
:100CD000F00DB11DAA1F649F6627B00DA11D661FF0
:100CE000829F2227B00DA11D621F739FB00DA11D11
:100CF000621F839FA00D611D221F749F3327A00DCB
:100D0000611D231F849F600D211D822F762F6A2F66
:100D100011249F5750409AF0F1F088234AF0EE0FCB
:100D2000FF1FBB1F661F771F881F91505040A9F7F8
:100D30009E3F510580F00C94B2060C943A065F3F3A
:100D4000E4F3983ED4F3869577956795B795F79534
:100D5000E7959F5FC1F7FE2B880F911D96958795AC
:100D600097F9089597F99F6780E870E060E008952B
:100D70009FEF80EC089500240A94161617061806B3
:100D80000906089500240A9412161306140605068F
:100D90000895092E0394000C11F4882352F0BB0F20
:100DA00040F4BF2B11F460FF04C06F5F7F4F8F4F83
:080DB0009F4F0895F894FFCF56
:00000001FF
