:100000000C943E000C9450000C9450000C94500042
:100010000C9450000C9450000C9450000C94500020
:100020000C9450000C9450000C9450000C94500010
:100030000C9450000C9450000C9450000C94500000
:100040000C94CE000C9450000C9450000C94500072
:100050000C9450002E034B0368038503A203BF03D7
:10006000DC03F9031604330467048404A104BE040A
:10007000DB04F804150532054F056C0511241FBE7D
:10008000CFE5D8E0DEBFCDBF20E0A0E6B0E001C004
:100090001D92A236B207E1F70E94CC050C94C80766
:1000A0000C940000CF93DF93CDB7DEB70000DF9153
:1000B000CF910895CF93DF93CDB7DEB786E290E07E
:1000C00026E230E0F90120812068FC012083000055
:1000D000DF91CF910895CF93DF93CDB7DEB786E25E
:1000E00090E026E230E0F90120812F77FC012083A7
:1000F0000000DF91CF910895CF93DF93CDB7DEB7A6
:1001000086E290E026E230E0F90120812064FC01E3
:1001100020830000DF91CF910895CF93DF93CDB777
:10012000DEB786E290E026E230E0F9012081286027
:10013000FC0120830000DF91CF910895CF93DF93DE
:10014000CDB7DEB786E290E026E230E0F90120810B
:10015000277FFC0120830000DF91CF910895CF938A
:10016000DF93CDB7DEB784E290E0FC01808191811E
:10017000DF91CF910895CF93DF9300D0CDB7DEB755
:100180009A83898389819A8190936100809360002A
:1001900000000F900F90DF91CF9108951F920F9262
:1001A00000905F000F9211242F933F934F935F9322
:1001B0006F937F938F939F93AF93BF93EF93FF932F
:1001C000CF93DF93CDB7DEB780916000909161004F
:1001D000FC0109950000DF91CF91FF91EF91BF9154
:1001E000AF919F918F917F916F915F914F913F91CF
:1001F0002F910F9000925F000F901F901895CF9352
:10020000DF93CDB7DEB78AE390E02FE9FC012083CE
:1002100087E390E020E1FC01208384E390E0FC018F
:10022000108281E390E0FC0110820000DF91CF9109
:100230000895CF93DF9300D0CDB7DEB789836A836B
:100240008A81813009F074C089818830A8F48BE3F9
:1002500090E02BE330E0F9012081622F2981422FC9
:1002600050E021E030E002C0220F331F4A95E2F750
:10027000262BFC012083D6C089818830D8F0898163
:100280008031C0F488E390E028E330E0F901208178
:10029000622F2981222F30E0A9014850510921E025
:1002A00030E002C0220F331F4A95E2F7262BFC01F3
:1002B0002083B8C089818031D8F089818831C0F429
:1002C00085E390E025E330E0F9012081622F298168
:1002D000222F30E0A9014051510921E030E002C055
:1002E000220F331F4A95E2F7262BFC0120839AC088
:1002F0008981883108F496C08981803208F092C0E3
:1003000082E390E022E330E0F9012081622F29812D
:10031000222F30E0A9014051510921E030E002C014
:10032000220F331F4A95E2F7262BFC0120837AC067
:100330008A81882309F076C089818830B0F48BE304
:1003400090E02BE330E0F9012081622F2981422FD8
:1003500050E021E030E002C0220F331F4A95E2F75F
:1003600020952623FC0120835DC089818830E0F040
:1003700089818031C8F488E390E028E330E0F90116
:100380002081622F2981222F30E0A9014850510994
:1003900021E030E002C0220F331F4A95E2F720959A
:1003A0002623FC0120833EC089818031E0F08981D1
:1003B0008831C8F485E390E025E330E0F90120813D
:1003C000622F2981222F30E0A9014051510921E0FB
:1003D00030E002C0220F331F4A95E2F72095262312
:1003E000FC0120831FC089818831E0F0898180323F
:1003F000C8F482E390E022E330E0F9012081622F2B
:100400002981222F30E0A9014051510921E030E03B
:1004100002C0220F331F4A95E2F720952623FC01E4
:10042000208300C000000F900F90DF91CF910895BE
:10043000CF93DF9300D0CDB7DEB78A838A8188302F
:1004400088F489E390E0FC018081882F90E02A8184
:10045000222F30E002C0959587952A95E2F78170AA
:1004600089834AC08A818830B0F08A81803198F4CB
:1004700086E390E0FC018081882F90E02A81222F82
:1004800030E02850310902C0959587952A95E2F70A
:100490008170898331C08A818031B0F08A8188314E
:1004A00098F483E390E0FC018081882F90E02A811A
:1004B000222F30E02051310902C0959587952A9569
:1004C000E2F78170898318C08A818831A8F08A8117
:1004D000803290F480E390E0FC018081882F90E0EE
:1004E0002A81222F30E02051310902C0959587954D
:1004F0002A95E2F78170898389810F900F90DF91AF
:10050000CF910895CF93DF931F92CDB7DEB7898344
:1005100089818830A8F48BE390E02BE330E0F90187
:100520002081622F2981422F50E021E030E002C07B
:10053000220F331F4A95E2F72627FC0120835AC079
:1005400089818830D8F089818031C0F488E390E0D7
:1005500028E330E0F9012081622F2981222F30E049
:10056000A9014850510921E030E002C0220F331F99
:100570004A95E2F72627FC0120833CC0898180311F
:10058000D8F089818831C0F485E390E025E330E03C
:10059000F9012081622F2981222F30E0A9014051E9
:1005A000510921E030E002C0220F331F4A95E2F7E3
:1005B0002627FC0120831EC089818831D8F08981DB
:1005C0008032C0F482E390E022E330E0F901208140
:1005D000622F2981222F30E0A9014051510921E0E9
:1005E00030E002C0220F331F4A95E2F72627FC01B4
:1005F000208300C000000F90DF91CF910895CF932A
:10060000DF93CDB7DEB70000DF91CF910895CF9390
:10061000DF9300D0CDB7DEB789836A838981882FC5
:1006200090E08130910521F0029709F43AC172C23D
:100630008A81882F90E0092E000CAA0BBB0B40E0AA
:1006400050E029E030E0841B950B2817390708F4A7
:1006500060C2865D9F4FFC010C94A70660E080E0BD
:100660000E94190160E081E00E94190160E082E0CF
:100670000E94190160E083E00E94190160E084E0BB
:100680000E94190160E085E00E94190161E086E0A6
:100690000E94190105C161E080E00E94190160E03B
:1006A00081E00E94190160E082E00E94190161E08E
:1006B00083E00E94190161E084E00E94190161E079
:1006C00085E00E94190161E086E00E941901E8C0FE
:1006D00060E080E00E94190160E081E00E94190161
:1006E00061E082E00E94190160E083E00E9419014C
:1006F00060E084E00E94190161E085E00E94190138
:1007000060E086E00E941901CBC060E080E00E94BA
:10071000190160E081E00E94190160E082E00E941E
:10072000190160E083E00E94190161E084E00E9409
:10073000190161E085E00E94190160E086E00E94F5
:100740001901AEC061E080E00E94190160E081E023
:100750000E94190160E082E00E94190161E083E0DB
:100760000E94190161E084E00E94190160E085E0C7
:100770000E94190160E086E00E94190191C060E0CA
:1007800080E00E94190161E081E00E94190160E0AF
:1007900082E00E94190160E083E00E94190161E09B
:1007A00084E00E94190160E085E00E94190160E088
:1007B00086E00E94190174C060E080E00E94190187
:1007C00061E081E00E94190160E082E00E9419016D
:1007D00060E083E00E94190160E084E00E9419015A
:1007E00060E085E00E94190160E086E00E94190146
:1007F00057C060E080E00E94190160E081E00E9443
:10080000190160E082E00E94190161E083E00E942A
:10081000190161E084E00E94190161E085E00E9415
:10082000190161E086E00E9419013AC060E080E0B1
:100830000E94190160E081E00E94190160E082E0FD
:100840000E94190160E083E00E94190160E084E0E9
:100850000E94190160E085E00E94190160E086E0D5
:100860000E9419011DC060E080E00E94190160E053
:1008700081E00E94190160E082E00E94190160E0BD
:1008800083E00E94190160E084E00E94190161E0A8
:1008900085E00E94190160E086E00E9419010000D5
:1008A00038C18A81882F90E0092E000CAA0BBB0B5F
:1008B00040E050E029E030E0841B950B2817390711
:1008C00008F428C18C5C9F4FFC010C94A70660E0E3
:1008D00088E00E94190160E089E00E94190160E04F
:1008E0008AE00E94190160E08BE00E94190160E03B
:1008F0008CE00E94190160E08DE00E94190161E026
:100900008EE00E94190106C161E088E00E94190191
:1009100060E089E00E94190160E08AE00E9419010C
:1009200061E08BE00E94190161E08CE00E941901F6
:1009300061E08DE00E94190161E08EE00E941901E2
:10094000E9C060E088E00E94190160E089E00E944F
:10095000190161E08AE00E94190160E08BE00E94C9
:10096000190160E08CE00E94190161E08DE00E94B5
:10097000190160E08EE00E941901CCC060E088E0BF
:100980000E94190160E089E00E94190160E08AE09C
:100990000E94190160E08BE00E94190161E08CE087
:1009A0000E94190161E08DE00E94190160E08EE073
:1009B0000E941901AFC061E088E00E94190160E067
:1009C00089E00E94190160E08AE00E94190161E05B
:1009D0008BE00E94190161E08CE00E94190160E047
:1009E0008DE00E94190160E08EE00E94190192C022
:1009F00060E088E00E94190161E089E00E9419012D
:100A000060E08AE00E94190160E08BE00E94190119
:100A100061E08CE00E94190160E08DE00E94190104
:100A200060E08EE00E94190175C060E088E00E94DD
:100A3000190161E089E00E94190160E08AE00E94EA
:100A4000190160E08BE00E94190160E08CE00E94D7
:100A5000190160E08DE00E94190160E08EE00E94C3
:100A6000190158C060E088E00E94190160E089E047
:100A70000E94190160E08AE00E94190161E08BE0A8
:100A80000E94190161E08CE00E94190161E08DE093
:100A90000E94190161E08EE00E9419013BC060E0F4
:100AA00088E00E94190160E089E00E94190160E07D
:100AB0008AE00E94190160E08BE00E94190160E069
:100AC0008CE00E94190160E08DE00E94190160E055
:100AD0008EE00E9419011EC060E088E00E941901AA
:100AE00060E089E00E94190160E08AE00E9419013B
:100AF00060E08BE00E94190160E08CE00E94190127
:100B000061E08DE00E94190160E08EE00E94190111
:100B100001C0000000000F900F90DF91CF91089569
:100B2000CF93DF931F92CDB7DEB789838981882F5A
:100B300090E08130910519F0029731F00AC061E030
:100B400087E00E94190105C061E087E00E94190159
:100B5000000000000F90DF91CF910895CF93DF93B5
:100B60001F92CDB7DEB789838981882F90E08130CD
:100B7000910519F0029731F00AC060E087E00E9409
:100B8000190105C060E087E00E9419010000000023
:100B90000F90DF91CF910895CF93DF93CDB7DEB75C
:100BA00062970FB6F894DEBF0FBECDBF0E94FF0064
:100BB0000E94FF020E9452000E945A0082E00E949E
:100BC00090050E947C000E94AF009A8389838981EE
:100BD0009A81880F991F880F991F9C838B838B8123
:100BE0009C818536910528F461E082E00E9407032C
:100BF0003BC08B819C818536910550F08B819C8117
:100C0000893C910528F462E082E00E9407032CC031
:100C10008B819C81893C910550F08B819C818D3228
:100C2000914028F463E082E00E9407031DC08B819D
:100C30009C818139914050F08B819C81853F91400E
:100C400028F464E082E00E9407030EC08B819C813F
:100C5000853F914048F08B819C818938934120F4F5
:100C600065E082E00E94070380E090E4ACE9B5E42F
:100C70008D839E83AF83B88720E030E04AEF54E451
:100C80006D817E818F8198850E943307DC01CB01C5
:100C900089879A87AB87BC8720E030E040E85FE334
:100CA00069857A858B859C850E94AD0688232CF406
:100CB00081E090E09E878D873FC020E03FEF4FE7C7
:100CC00057E469857A858B859C850E942E071816C6
:100CD0004CF520E030E040E251E46D817E818F816F
:100CE00098850E943307DC01CB01BC01CD010E9435
:100CF000B206DC01CB019E878D870FC088EC90E0A7
:100D0000988B8F878F8598890197F1F7988B8F87BC
:100D10008D859E8501979E878D878D859E85892BE4
:100D200069F714C069857A858B859C850E94B20617
:100D3000DC01CB019E878D878D859E859A8B898B63
:100D400089899A890197F1F79A8B898B3ACFEE0FAF
:100D5000FF1F0590F491E02D09940E94E10608F42C
:100D600081E008950E940D0788F09F5798F0B92FF1
:100D70009927B751B0F0E1F0660F771F881F991FD0
:100D80001AF0BA95C9F714C0B13091F00E94270744
:100D9000B1E008950C942707672F782F8827B85F54
:100DA00039F0B93FCCF3869577956795B395D9F728
:100DB0003EF490958095709561957F4F8F4F9F4F32
:100DC0000895990F0008550FAA0BE0E8FEEF1616DC
:100DD0001706E807F907C0F012161306E407F5072F
:100DE00098F0621B730B840B950B39F40A2661F0A3
:100DF000232B242B252B21F408950A2609F4A14046
:100E0000A6958FEF811D811D089557FD9058440FC1
:100E1000551F59F05F3F71F04795880F97FB991F59
:100E200061F09F3F79F08795089512161306140616
:100E3000551FF2CF4695F1DF08C0161617061806A3
:100E4000991FF1CF86957105610508940895E8947E
:100E5000BB2766277727CB0197F908950E94E10603
:100E600008F48FEF08950E9446070C94B7070E947C
:100E7000A90738F00E94B00720F0952311F00C94D8
:100E8000A0070C94A60711240C9428070E940507BC
:100E900070F3959FC1F3950F50E0551F629FF001CD
:100EA000729FBB27F00DB11D639FAA27F00DB11DE6
:100EB000AA1F649F6627B00DA11D661F829F22276F
:100EC000B00DA11D621F739FB00DA11D621F839FF6
:100ED000A00D611D221F749F3327A00D611D231FCC
:100EE000849F600D211D822F762F6A2F11249F571A
:100EF00050409AF0F1F088234AF0EE0FFF1FBB1F1D
:100F0000661F771F881F91505040A9F79E3F5105DB
:100F100080F00C94A0070C9428075F3FE4F3983E00
:100F2000D4F3869577956795B795F795E7959F5F85
:100F3000C1F7FE2B880F911D9695879597F9089517
:100F400097F99F6780E870E060E008959FEF80EC7C
:100F5000089500240A94161617061806090608951F
:100F600000240A9412161306140605060895092E85
:100F70000394000C11F4882352F0BB0F40F4BF2BF4
:100F800011F460FF04C06F5F7F4F8F4F9F4F089534
:040F9000F894FFCF03
:00000001FF
