:100000000C948A000C94F6020C949C000C949C00B6
:100010000C949C000C949C000C949C000C949C00F0
:100020000C949C000C949C000C949C000C949C00E0
:100030000C949C000C949C000C949C000C949C00D0
:100040000C949C000C949C000C949C000C949C00C0
:100050000C949C006D03720377037C038103860379
:100060008B03900395039A039F03A403A903AE0394
:10007000B303B803BD03C203C703CC03D103D60344
:10008000DB03E003E503EA03EF03F403F903FE03F4
:10009000030408042E04330438043D0442044704D6
:1000A0004C04510456045B04600465046A046F0444
:1000B000740479047E04830488048D0492049704F4
:1000C0009C04A104A604AB04B004B504BA04BF04A4
:1000D000C404C904EF04F304F704FB04FF0403059C
:1000E00007050B050F05130517051B051F05230540
:1000F00027052B052F05330537053B053F05430530
:1001000047054B054F05530557055B055F0563051F
:1001100067056B0511241FBECFE5D8E0DEBFCDBF5C
:1001200020E0A0E6B0E001C01D92A236B207E1F7E0
:100130000E9474050C9498050C940000CF93DF93F3
:10014000CDB7DEB78AE390E02FE1FC01208387E39F
:1001500090E0FC01108284E390E0FC01108281E3D6
:1001600090E0FC0110820000DF91CF910895CF93C1
:10017000DF9300D0CDB7DEB789836A838A8181306F
:1001800009F074C089818830A8F48BE390E02BE3F8
:1001900030E0F9012081622F2981422F50E021E0D7
:1001A00030E002C0220F331F4A95E2F7262BFC01F4
:1001B0002083D6C089818830D8F089818031C0F40D
:1001C00088E390E028E330E0F9012081622F298163
:1001D000222F30E0A9014850510921E030E002C04F
:1001E000220F331F4A95E2F7262BFC012083B8C06B
:1001F00089818031D8F089818831C0F485E390E02D
:1002000025E330E0F9012081622F2981222F30E09F
:10021000A9014051510921E030E002C0220F331FF3
:100220004A95E2F7262BFC0120839AC08981883108
:1002300008F496C08981803208F092C082E390E091
:1002400022E330E0F9012081622F2981222F30E062
:10025000A9014051510921E030E002C0220F331FB3
:100260004A95E2F7262BFC0120837AC08A818823F5
:1002700009F076C089818830B0F48BE390E02BE3FD
:1002800030E0F9012081622F2981422F50E021E0E6
:1002900030E002C0220F331F4A95E2F72095262353
:1002A000FC0120835DC089818830E0F08981803144
:1002B000C8F488E390E028E330E0F9012081622F60
:1002C0002981222F30E0A9014850510921E030E076
:1002D00002C0220F331F4A95E2F720952623FC0126
:1002E00020833EC089818031E0F089818831C8F463
:1002F00085E390E025E330E0F9012081622F298138
:10030000222F30E0A9014051510921E030E002C024
:10031000220F331F4A95E2F720952623FC01208304
:100320001FC089818831E0F089818032C8F482E37E
:1003300090E022E330E0F9012081622F2981222F11
:1003400030E0A9014051510921E030E002C0220F04
:10035000331F4A95E2F720952623FC01208300C035
:1003600000000F900F90DF91CF910895CF93DF930E
:1003700000D0CDB7DEB78A838A81883088F489E3DC
:1003800090E0FC018081882F90E02A81222F30E0CC
:1003900002C0959587952A95E2F7817089834AC0B6
:1003A0008A818830B0F08A81803198F486E390E0C9
:1003B000FC018081882F90E02A81222F30E0285094
:1003C000310902C0959587952A95E2F78170898356
:1003D00031C08A818031B0F08A81883198F483E31A
:1003E00090E0FC018081882F90E02A81222F30E06C
:1003F0002051310902C0959587952A95E2F78170C1
:10040000898318C08A818831A8F08A81803290F46B
:1004100080E390E0FC018081882F90E02A81222FE8
:1004200030E02051310902C0959587952A95E2F771
:100430008170898389810F900F90DF91CF9108950A
:10044000CF93DF931F92CDB7DEB789838981883040
:10045000A8F48BE390E02BE330E0F9012081622FD8
:100460002981422F50E021E030E002C0220F331FEB
:100470004A95E2F72627FC0120835AC089818830FB
:10048000D8F089818031C0F488E390E028E330E03F
:10049000F9012081622F2981222F30E0A9014850E3
:1004A000510921E030E002C0220F331F4A95E2F7E4
:1004B0002627FC0120833CC089818031D8F08981C6
:1004C0008831C0F485E390E025E330E0F901208134
:1004D000622F2981222F30E0A9014051510921E0EA
:1004E00030E002C0220F331F4A95E2F72627FC01B5
:1004F00020831EC089818831D8F089818032C0F480
:1005000082E390E022E330E0F9012081622F29812B
:10051000222F30E0A9014051510921E030E002C012
:10052000220F331F4A95E2F72627FC01208300C0E3
:1005300000000F90DF91CF910895CF93DF93CDB757
:10054000DEB785E590E025E530E0F90120812C7FDC
:100550002160FC0120838BE590E02BE530E0F90180
:1005600020812F7BFC0120838AE590E02AE530E0A2
:10057000F90120812064FC0120830000DF91CF91EC
:100580000895CF93DF93CDB7DEB78BE590E02BE5F1
:1005900030E0F90120812064FC0120830000DF911C
:1005A000CF910895CF93DF93CDB7DEB78BE590E081
:1005B0002BE530E0F90120812F7BFC012083000036
:1005C000DF91CF910895CF93DF9300D0CDB7DEB701
:1005D0009A83898389819A819093610080936000D6
:1005E00000000F900F90DF91CF9108951F920F920E
:1005F00000905F000F9211242F933F934F935F93CE
:100600006F937F938F939F93AF93BF93EF93FF93DA
:10061000CF93DF93CDB7DEB78091600090916100FA
:10062000FC0109950000DF91CF91FF91EF91BF91FF
:10063000AF919F918F917F916F915F914F913F917A
:100640002F910F9000925F000F901F901895CF93FD
:10065000DF93CDB7DEB78FE590E02FE530E0F9010D
:1006600020812068FC0120830000DF91CF91089554
:10067000CF93DF93CDB7DEB78FE590E02FE530E085
:10068000F90120812F77FC0120830000DF91CF91B9
:100690000895CF93DF93CDB7DEB70000DF91CF9100
:1006A0000895CF93DF931F92CDB7DEB789838981F9
:1006B000882F90E0092E000CAA0BBB0B40E050E005
:1006C0002FE130E0841B950B2817390708F4A5C0EB
:1006D000865D9F4FFC010C94920561E080E00E94D2
:1006E000B7009BC061E081E00E94B70096C061E066
:1006F00082E00E94B70091C061E083E00E94B700F1
:100700008CC061E084E00E94B70087C061E085E0B2
:100710000E94B70082C061E086E00E94B7007DC001
:1007200061E087E00E94B70078C061E088E00E9445
:10073000B70073C061E089E00E94B7006EC061E05D
:100740008AE00E94B70069C061E08BE00E94B700B8
:1007500064C061E08CE00E94B7005FC061E08DE0A2
:100760000E94B7005AC061E08EE00E94B70055C0F9
:1007700061E08FE00E94B70050C061E080E10E941C
:10078000B7004BC061E081E10E94B70046C061E064
:1007900082E10E94B70041C061E083E10E94B7009E
:1007A0003CC061E084E10E94B70037C061E085E1B0
:1007B0000E94B70032C061E086E10E94B7002DC000
:1007C00061E087E10E94B70028C061E088E10E94F3
:1007D000B70023C061E089E10E94B7001EC061E05C
:1007E0008AE10E94B70019C061E08BE10E94B70066
:1007F00014C061E08CE10E94B7000FC061E08DE1A0
:100800000E94B7000AC061E08EE10E94B70005C0F7
:1008100061E08FE10E94B700000000000F90DF91BF
:10082000CF910895CF93DF931F92CDB7DEB7898321
:100830008981882F90E0092E000CAA0BBB0B40E0A9
:1008400050E02FE130E0841B950B2817390708F49E
:10085000A5C0865B9F4FFC010C94920560E080E090
:100860000E94B7009BC060E081E00E94B70096C084
:1008700060E082E00E94B70091C060E083E00E94E7
:10088000B7008CC060E084E00E94B70087C060E0E1
:1008900085E00E94B70082C060E086E00E94B70059
:1008A0007DC060E087E00E94B70078C060E088E02B
:1008B0000E94B70073C060E089E00E94B7006EC07C
:1008C00060E08AE00E94B70069C060E08BE00E94AF
:1008D000B70064C060E08CE00E94B7005FC060E0D9
:1008E0008DE00E94B7005AC060E08EE00E94B70021
:1008F00055C060E08FE00E94B70050C060E080E12A
:100900000E94B7004BC060E081E10E94B70046C082
:1009100060E082E10E94B70041C060E083E10E9494
:10092000B7003CC060E084E10E94B70037C060E0DF
:1009300085E10E94B70032C060E086E10E94B70006
:100940002DC060E087E10E94B70028C060E088E128
:100950000E94B70023C060E089E10E94B7001EC07A
:1009600060E08AE10E94B70019C060E08BE10E945C
:10097000B70014C060E08CE10E94B7000FC060E0D7
:100980008DE10E94B7000AC060E08EE10E94B700CE
:1009900005C060E08FE10E94B700000000000F90EA
:1009A000DF91CF910895CF93DF931F92CDB7DEB73C
:1009B00089838981882F90E0092E000CAA0BBB0B3C
:1009C00040E050E02FE130E0841B950B28173907F9
:1009D00008F485C086599F4FFC010C94920580E075
:1009E0000E9420027CC081E00E94200278C082E048
:1009F0000E94200274C083E00E94200270C084E044
:100A00000E9420026CC085E00E94200268C086E03F
:100A10000E94200264C087E00E94200260C088E03B
:100A20000E9420025CC089E00E94200258C08AE037
:100A30000E94200254C08BE00E94200250C08CE033
:100A40000E9420024CC08DE00E94200248C08EE02F
:100A50000E94200244C08FE00E94200240C080E13A
:100A60000E9420023CC081E10E94200238C082E145
:100A70000E94200234C083E10E94200230C084E141
:100A80000E9420022CC085E10E94200228C086E13D
:100A90000E94200224C087E10E94200220C088E139
:100AA0000E9420021CC089E10E94200218C08AE135
:100AB0000E94200214C08BE10E94200210C08CE131
:100AC0000E9420020CC08DE10E94200208C08EE12D
:100AD0000E94200204C08FE10E942002000000005A
:100AE0000F90DF91CF910895CF93DF93CDB7DEB70D
:100AF0000E949E000E9449030E949D020E942703BB
:100B000087E895E00E94E3020E94C102FFCFCF93E5
:100B1000DF93CDB7DEB780E00E94D3040000DF9101
:100B2000CF910895EE0FFF1F0590F491E02D0994E9
:040B3000F894FFCF67
:00000001FF
