:100000000C942A000C9434000C9434000C943400AA
:100010000C9434000C9434000C9434000C94340090
:100020000C9434000C9434000C9434000C94340080
:100030000C9434000C9434000C9434000C94340070
:100040000C9434000C9434000C9434000C94340060
:100050000C94340011241FBECFE5D8E0DEBFCDBF25
:100060000E9435020C9449040C940000CF93DF9356
:10007000CDB7DEB78AE390E02FE1FC01208387E370
:1000800090E0FC01108284E390E0FC01108281E3A7
:1000900090E0FC0110820000DF91CF910895CF9392
:1000A000DF9300D0CDB7DEB789836A838A81813040
:1000B00009F074C089818830A8F48BE390E02BE3C9
:1000C00030E0F9012081622F2981422F50E021E0A8
:1000D00030E002C0220F331F4A95E2F7262BFC01C5
:1000E0002083D6C089818830D8F089818031C0F4DE
:1000F00088E390E028E330E0F9012081622F298134
:10010000222F30E0A9014850510921E030E002C01F
:10011000220F331F4A95E2F7262BFC012083B8C03B
:1001200089818031D8F089818831C0F485E390E0FD
:1001300025E330E0F9012081622F2981222F30E070
:10014000A9014051510921E030E002C0220F331FC4
:100150004A95E2F7262BFC0120839AC089818831D9
:1001600008F496C08981803208F092C082E390E062
:1001700022E330E0F9012081622F2981222F30E033
:10018000A9014051510921E030E002C0220F331F84
:100190004A95E2F7262BFC0120837AC08A818823C6
:1001A00009F076C089818830B0F48BE390E02BE3CE
:1001B00030E0F9012081622F2981422F50E021E0B7
:1001C00030E002C0220F331F4A95E2F72095262324
:1001D000FC0120835DC089818830E0F08981803115
:1001E000C8F488E390E028E330E0F9012081622F31
:1001F0002981222F30E0A9014850510921E030E047
:1002000002C0220F331F4A95E2F720952623FC01F6
:1002100020833EC089818031E0F089818831C8F433
:1002200085E390E025E330E0F9012081622F298108
:10023000222F30E0A9014051510921E030E002C0F5
:10024000220F331F4A95E2F720952623FC012083D5
:100250001FC089818831E0F089818032C8F482E34F
:1002600090E022E330E0F9012081622F2981222FE2
:1002700030E0A9014051510921E030E002C0220FD5
:10028000331F4A95E2F720952623FC01208300C006
:1002900000000F900F90DF91CF910895CF93DF93DF
:1002A00000D0CDB7DEB78A838A81883088F489E3AD
:1002B00090E0FC018081882F90E02A81222F30E09D
:1002C00002C0959587952A95E2F7817089834AC087
:1002D0008A818830B0F08A81803198F486E390E09A
:1002E000FC018081882F90E02A81222F30E0285065
:1002F000310902C0959587952A95E2F78170898327
:1003000031C08A818031B0F08A81883198F483E3EA
:1003100090E0FC018081882F90E02A81222F30E03C
:100320002051310902C0959587952A95E2F7817091
:10033000898318C08A818831A8F08A81803290F43C
:1003400080E390E0FC018081882F90E02A81222FB9
:1003500030E02051310902C0959587952A95E2F742
:100360008170898389810F900F90DF91CF910895DB
:10037000CF93DF931F92CDB7DEB789838981883011
:10038000A8F48BE390E02BE330E0F9012081622FA9
:100390002981422F50E021E030E002C0220F331FBC
:1003A0004A95E2F72627FC0120835AC089818830CC
:1003B000D8F089818031C0F488E390E028E330E010
:1003C000F9012081622F2981222F30E0A9014850B4
:1003D000510921E030E002C0220F331F4A95E2F7B5
:1003E0002627FC0120833CC089818031D8F0898197
:1003F0008831C0F485E390E025E330E0F901208105
:10040000622F2981222F30E0A9014051510921E0BA
:1004100030E002C0220F331F4A95E2F72627FC0185
:1004200020831EC089818831D8F089818032C0F450
:1004300082E390E022E330E0F9012081622F2981FC
:10044000222F30E0A9014051510921E030E002C0E3
:10045000220F331F4A95E2F72627FC01208300C0B4
:1004600000000F90DF91CF910895CF93DF93CDB728
:10047000DEB76C970FB6F894DEBF0FBECDBF0E94FB
:10048000360061E080E00E944F0080E090E0AAE743
:10049000B4E489839A83AB83BC8320E030E04AEFE5
:1004A00054E469817A818B819C810E94B403DC01D0
:1004B000CB018B8B9C8BAD8BBE8B20E030E040E87A
:1004C0005FE36B897C898D899E890E942E03882336
:1004D0002CF481E090E0988F8F8B3FC020E03FEFBD
:1004E0004FE757E46B897C898D899E890E94AF0311
:1004F00018164CF520E030E040E251E469817A8141
:100500008B819C810E94B403DC01CB01BC01CD0135
:100510000E943303DC01CB01988F8F8B0FC088ECD6
:1005200090E09A8F898F898D9A8D0197F1F79A8F34
:10053000898F8F89988D0197988F8F8B8F89988D50
:10054000892B69F714C06B897C898D899E890E94EB
:100550003303DC01CB01988F8F8B8F89988D9C8F13
:100560008B8F8B8D9C8D0197F1F79C8F8B8F60E02B
:1005700080E00E944F0080E090E0AAE7B4E48D8321
:100580009E83AF83B88720E030E04AEF54E46D816A
:100590007E818F8198850E94B403DC01CB0189871D
:1005A0009A87AB87BC8720E030E040E85FE369854D
:1005B0007A858B859C850E942E0388232CF481E00C
:1005C00090E09E878D873FC020E03FEF4FE757E4E4
:1005D00069857A858B859C850E94AF0318164CF53A
:1005E00020E030E040E251E46D817E818F8198858A
:1005F0000E94B403DC01CB01BC01CD010E94330396
:10060000DC01CB019E878D870FC088EC90E0988B32
:100610008F878F8598890197F1F7988B8F878D85C4
:100620009E8501979E878D878D859E85892B69F78D
:1006300014C069857A858B859C850E943303DC0113
:10064000CB019E878D878D859E859A8B898B898925
:100650009A890197F1F79A8B898B13CF0E946203D5
:1006600008F481E008950E948E0388F09F5798F067
:10067000B92F9927B751B0F0E1F0660F771F881FA7
:10068000991F1AF0BA95C9F714C0B13091F00E94C1
:10069000A803B1E008950C94A803672F782F88274A
:1006A000B85F39F0B93FCCF3869577956795B395E8
:1006B000D9F73EF490958095709561957F4F8F4F57
:1006C0009F4F0895990F0008550FAA0BE0E8FEEF21
:1006D00016161706E807F907C0F012161306E40706
:1006E000F50798F0621B730B840B950B39F40A26FF
:1006F00061F0232B242B252B21F408950A2609F4DD
:10070000A140A6958FEF811D811D089557FD90583A
:10071000440F551F59F05F3F71F04795880F97FBC5
:10072000991F61F09F3F79F087950895121613067F
:100730001406551FF2CF4695F1DF08C016161706AE
:100740001806991FF1CF86957105610508940895E3
:10075000E894BB2766277727CB0197F908950E9475
:10076000620308F48FEF08950E94C7030C943804C5
:100770000E942A0438F00E94310420F0952311F0E1
:100780000C9421040C94270411240C94A9030E94B6
:10079000860370F3959FC1F3950F50E0551F629F3C
:1007A000F001729FBB27F00DB11D639FAA27F00DCA
:1007B000B11DAA1F649F6627B00DA11D661F829FF1
:1007C0002227B00DA11D621F739FB00DA11D621FD6
:1007D000839FA00D611D221F749F3327A00D611DF3
:1007E000231F849F600D211D822F762F6A2F1124D5
:1007F0009F5750409AF0F1F088234AF0EE0FFF1F08
:10080000BB1F661F771F881F91505040A9F79E3F5E
:10081000510580F00C9421040C94A9035F3FE4F38C
:10082000983ED4F3869577956795B795F795E795B4
:100830009F5FC1F7FE2B880F911D9695879597F9BD
:10084000089597F99F6780E870E060E008959FEF52
:1008500080EC089500240A94161617061806090657
:10086000089500240A941216130614060506089526
:10087000092E0394000C11F4882352F0BB0F40F4AE
:10088000BF2B11F460FF04C06F5F7F4F8F4F9F4FEE
:060890000895F894FFCF6B
:00000001FF
