:100000000C942A000C943F000C943F000C943F0089
:100010000C943F000C943F000C943F000C943F0064
:100020000C943F000C943F000C943F000C943F0054
:100030000C943F000C943F000C943F000C943F0044
:100040000C943F000C943F000C943F000C943F0034
:100050000C943F0011241FBECFE5D8E0DEBFCDBF1A
:1000600010E0A0E6B0E0EEE6FFE002C005900D92E1
:10007000A836B107D9F70E940A060C94B5070C946C
:100080000000CF93DF93CDB7DEB78AE390E02FEF88
:10009000FC01208387E390E02FE7FC01208384E3C9
:1000A00090E02FEFFC01208381E390E02FEFFC0133
:1000B00020830000DF91CF910895CF93DF9300D08C
:1000C000CDB7DEB789836A838A81813009F074C035
:1000D00089818830A8F48BE390E02BE330E0F901CC
:1000E0002081622F2981422F50E021E030E002C0C0
:1000F000220F331F4A95E2F7262BFC012083D6C03E
:1001000089818830D8F089818031C0F488E390E01B
:1001100028E330E0F9012081622F2981222F30E08D
:10012000A9014850510921E030E002C0220F331FDD
:100130004A95E2F7262BFC012083B8C089818031E3
:10014000D8F089818831C0F485E390E025E330E080
:10015000F9012081622F2981222F30E0A90140512D
:10016000510921E030E002C0220F331F4A95E2F727
:10017000262BFC0120839AC08981883108F496C01F
:100180008981803208F092C082E390E022E330E07F
:10019000F9012081622F2981222F30E0A9014051ED
:1001A000510921E030E002C0220F331F4A95E2F7E7
:1001B000262BFC0120837AC08A81882309F076C02F
:1001C00089818830B0F48BE390E02BE330E0F901D3
:1001D0002081622F2981422F50E021E030E002C0CF
:1001E000220F331F4A95E2F720952623FC01208336
:1001F0005DC089818830E0F089818031C8F488E36E
:1002000090E028E330E0F9012081622F2981222F3C
:1002100030E0A9014850510921E030E002C0220F2E
:10022000331F4A95E2F720952623FC0120833EC028
:1002300089818031E0F089818831C8F485E390E0DC
:1002400025E330E0F9012081622F2981222F30E05F
:10025000A9014051510921E030E002C0220F331FB3
:100260004A95E2F720952623FC0120831FC089814F
:100270008831E0F089818032C8F482E390E022E3A3
:1002800030E0F9012081622F2981222F30E0A9017D
:100290004051510921E030E002C0220F331F4A953E
:1002A000E2F720952623FC01208300C000000F9078
:1002B0000F90DF91CF910895CF93DF9300D0CDB70A
:1002C000DEB78A838A81883088F489E390E0FC0174
:1002D0008081882F90E02A81222F30E002C09595FE
:1002E00087952A95E2F7817089834AC08A81883090
:1002F000B0F08A81803198F486E390E0FC0180813F
:10030000882F90E02A81222F30E02850310902C046
:10031000959587952A95E2F78170898331C08A8106
:100320008031B0F08A81883198F483E390E0FC0159
:100330008081882F90E02A81222F30E020513109DE
:1003400002C0959587952A95E2F78170898318C038
:100350008A818831A8F08A81803290F480E390E02D
:10036000FC018081882F90E02A81222F30E02051EB
:10037000310902C0959587952A95E2F781708983A6
:1003800089810F900F90DF91CF910895CF93DF93E4
:100390001F92CDB7DEB7898389818830A8F48BE3BB
:1003A00090E02BE330E0F9012081622F2981422F78
:1003B00050E021E030E002C0220F331F4A95E2F7FF
:1003C0002627FC0120835AC089818830D8F0898192
:1003D0008031C0F488E390E028E330E0F901208127
:1003E000622F2981222F30E0A9014850510921E0D4
:1003F00030E002C0220F331F4A95E2F72627FC01A6
:1004000020833CC089818031D8F089818831C0F453
:1004100085E390E025E330E0F9012081622F298116
:10042000222F30E0A9014051510921E030E002C003
:10043000220F331F4A95E2F72627FC0120831EC0B6
:1004400089818831D8F089818032C0F482E390E0DC
:1004500022E330E0F9012081622F2981222F30E050
:10046000A9014051510921E030E002C0220F331FA1
:100470004A95E2F72627FC01208300C000000F9078
:10048000DF91CF910895CF93DF93CDB7DEB7E89793
:100490000FB6F894DEBF0FBECDBF80E090E0A0EFB6
:1004A000B1E489839A83AB83BC8320E030E04AEFD8
:1004B00054E469817A818B819C810E942007DC0150
:1004C000CB018FA798ABA9ABBAAB20E030E040E8F6
:1004D0005FE36FA578A989A99AA90E949A06882343
:1004E0002CF481E090E09CAB8BAB3FC020E03FEF71
:1004F0004FE757E46FA578A989A99AA90E941B071D
:1005000018164CF520E030E040E251E469817A8130
:100510008B819C810E942007DC01CB01BC01CD01B5
:100520000E949F06DC01CB019CAB8BAB0FC088EC1B
:1005300090E09EAB8DAB8DA99EA90197F1F79EAB84
:100540008DAB8BA99CA901979CAB8BAB8BA99CA96C
:10055000892B69F714C06FA578A989A99AA90E9467
:100560009F06DC01CB019CAB8BAB8BA99CA998AF00
:100570008FAB8FA998AD0197F1F798AF8FAB88E259
:100580000E94440480E090E0A0E8BFE38D839E8356
:10059000AF83B88720E030E04AEF54E46D817E817C
:1005A0008F8198850E942007DC01CB018DA39EA33B
:1005B000AFA3B8A720E030E040E85FE36DA17EA1E3
:1005C0008FA198A50E949A0688232CF481E090E0E0
:1005D0009AA789A73FC020E03FEF4FE757E46DA1FE
:1005E0007EA18FA198A50E941B0718164CF520E04C
:1005F00030E040E251E46D817E818F8198850E94D8
:100600002007DC01CB01BC01CD010E949F06DC016B
:10061000CB019AA789A70FC088EC90E09CA78BA775
:100620008BA59CA50197F1F79CA78BA789A59AA5F7
:1006300001979AA789A789A59AA5892B69F714C05C
:100640006DA17EA18FA198A50E949F06DC01CB0120
:100650009AA789A789A59AA59EA78DA78DA59EA5CE
:100660000197F1F79EA78DA78CE00E94440480E0DB
:1006700090E0A0E8BFE389879A87AB87BC8720E03A
:1006800030E04AEF54E469857A858B859C850E9429
:100690002007DC01CB018B8F9C8FAD8FBE8F20E0BC
:1006A00030E040E85FE36B8D7C8D8D8D9E8D0E94E8
:1006B0009A0688232CF481E090E098A38F8F3FC0A6
:1006C00020E03FEF4FE757E46B8D7C8D8D8D9E8D45
:1006D0000E941B0718164CF520E030E040E251E480
:1006E00069857A858B859C850E942007DC01CB017A
:1006F000BC01CD010E949F06DC01CB0198A38F8F26
:100700000FC088EC90E09AA389A389A19AA10197D0
:10071000F1F79AA389A38F8D98A1019798A38F8F42
:100720008F8D98A1892B69F714C06B8D7C8D8D8D71
:100730009E8D0E949F06DC01CB0198A38F8F8F8D29
:1007400098A19CA38BA38BA19CA10197F1F79CA3DB
:100750008BA381E00E94440480E090E0A0E0B0E43C
:100760008D879E87AF87B88B20E030E04AEF54E456
:100770006D857E858F8598890E942007DC01CB01DD
:10078000898B9A8BAB8BBC8B20E030E040E85FE339
:1007900069897A898B899C890E949A0688232CF41E
:1007A00081E090E09E8B8D8B3FC020E03FEF4FE7D4
:1007B00057E469897A898B899C890E941B071816DE
:1007C0004CF520E030E040E251E46D857E858F8578
:1007D00098890E942007DC01CB01BC01CD010E9459
:1007E0009F06DC01CB019E8B8D8B0FC088EC90E0C7
:1007F000988F8F8B8F89988D0197F1F7988F8F8BBA
:100800008D899E8901979E8B8D8B8D899E89892BE1
:1008100069F714C069897A898B899C890E949F062F
:10082000DC01CB019E8B8D8B8D899E899A8F898F60
:10083000898D9A8D0197F1F79A8F898F86E00E94B2
:1008400044040000E8960FB6F894DEBF0FBECDBF9B
:10085000DF91CF910895CF93DF931F92CDB7DEB78D
:10086000898361E080E00E945D0060E081E00E9499
:100870005D0089810E94810489810E943305000006
:100880000F90DF91CF910895CF93DF931F92CDB753
:10089000DEB7898360E080E00E945D0060E081E077
:1008A0000E945D0089810E94810489810E94330534
:1008B00000000F90DF91CF910895CF93DF93CDB7D4
:1008C000DEB781E00E9444040000DF91CF910895DB
:1008D000CF93DF9300D0CDB7DEB789836A838A8157
:1008E000882329F4898180580E94440404C08981A6
:1008F00080540E94440400000F900F90DF91CF912C
:100900000895CF93DF93CDB7DEB72F970FB6F89446
:10091000DEBF0FBECDBF8F878F85881F8827881FBA
:10092000682F86E00E945D008F858295869586956A
:1009300083708170682F85E00E945D008F858295AD
:10094000869587708170682F84E00E945D008F8596
:1009500082958F708170682F83E00E945D0061E056
:1009600082E00E945D0080E090E0A0EAB0E489832C
:100970009A83AB83BC8320E030E04AEF54E4698182
:100980007A818B819C810E942007DC01CB018D83C1
:100990009E83AF83B88720E030E040E85FE36D815D
:1009A0007E818F8198850E949A0688232CF481E0AD
:1009B00090E09A8789873FC020E03FEF4FE757E4F8
:1009C0006D817E818F8198850E941B0718164CF5DA
:1009D00020E030E040E251E469817A818B819C81A2
:1009E0000E942007DC01CB01BC01CD010E949F06C3
:1009F000DC01CB019A8789870FC088EC90E09C8747
:100A00008B878B859C850197F1F79C878B878985E0
:100A10009A8501979A87898789859A85892B69F7AD
:100A200014C06D817E818F8198850E949F06DC01B4
:100A3000CB019A87898789859A859E878D878D8541
:100A40009E850197F1F79E878D8760E082E00E9486
:100A50005D0000002F960FB6F894DEBF0FBECDBF2D
:100A6000DF91CF910895CF93DF93CDB7DEB72F9766
:100A70000FB6F894DEBF0FBECDBF8F878F858695EA
:100A8000869586958170682F86E00E945D008F852F
:100A9000869586958170682F85E00E945D008F8520
:100AA00086958170682F84E00E945D008F8581703B
:100AB000682F83E00E945D0061E082E00E945D009B
:100AC00080E090E0A0EAB0E489839A83AB83BC83A2
:100AD00020E030E04AEF54E469817A818B819C8187
:100AE0000E942007DC01CB018D839E83AF83B887F2
:100AF00020E030E040E85FE36D817E818F81988562
:100B00000E949A0688232CF481E090E09A878987D6
:100B10003FC020E03FEF4FE757E46D817E818F813A
:100B200098850E941B0718164CF520E030E040E243
:100B300051E469817A818B819C810E942007DC01CC
:100B4000CB01BC01CD010E949F06DC01CB019A873D
:100B500089870FC088EC90E09C878B878B859C856C
:100B60000197F1F79C878B8789859A8501979A87EA
:100B7000898789859A85892B69F714C06D817E8163
:100B80008F8198850E949F06DC01CB019A87898717
:100B900089859A859E878D878D859E850197F1F73A
:100BA0009E878D8760E082E00E945D0000002F96A6
:100BB0000FB6F894DEBF0FBECDBFDF91CF91089581
:100BC000CF93DF9300D01F92CDB7DEB79B838A838C
:100BD00019820EC08981882F90E02A813B81820F83
:100BE000931FFC0180810E942B0489818F5F898380
:100BF0008981882F90E02A813B81820F931FFC011D
:100C00008081882339F700000F900F900F90DF91BB
:100C1000CF910895CF93DF93CDB7DEB766970FB628
:100C2000F894DEBF0FBECDBF0E9441000E94430278
:100C300088E0E0E6F0E0DE011F9601900D928A95D3
:100C4000E1F78DE60E942B0489E60E942B0480E0E8
:100C500090E4ACE9B5E489839A83AB83BC8320E05C
:100C600030E04AEF54E469817A818B819C810E9453
:100C70002007DC01CB018D839E83AF83B88720E002
:100C800030E040E85FE36D817E818F8198850E942E
:100C90009A0688232CF481E090E09A8789873FC0E8
:100CA00020E03FEF4FE757E46D817E818F8198858B
:100CB0000E941B0718164CF520E030E040E251E49A
:100CC00069817A818B819C810E942007DC01CB01A4
:100CD000BC01CD010E949F06DC01CB019A87898768
:100CE0000FC088EC90E09C878B878B859C85019753
:100CF000F1F79C878B8789859A8501979A878987E1
:100D000089859A85892B69F714C06D817E818F81D1
:100D100098850E949F06DC01CB019A878987898587
:100D20009A859E878D878D859E850197F1F79E8791
:100D30008D8787CF0E94CE0608F481E008950E9437
:100D4000FA0688F09F5798F0B92F9927B751B0F05D
:100D5000E1F0660F771F881F991F1AF0BA95C9F73F
:100D600014C0B13091F00E941407B1E008950C94C2
:100D70001407672F782F8827B85F39F0B93FCCF375
:100D8000869577956795B395D9F73EF490958095BC
:100D9000709561957F4F8F4F9F4F0895990F000871
:100DA000550FAA0BE0E8FEEF16161706E807F9073D
:100DB000C0F012161306E407F50798F0621B730BD8
:100DC000840B950B39F40A2661F0232B242B252B59
:100DD00021F408950A2609F4A140A6958FEF811DFC
:100DE000811D089557FD9058440F551F59F05F3FDE
:100DF00071F04795880F97FB991F61F09F3F79F03D
:100E000087950895121613061406551FF2CF4695BE
:100E1000F1DF08C0161617061806991FF1CF869540
:100E20007105610508940895E894BB276627772724
:100E3000CB0197F908950E94CE0608F48FEF08952C
:100E40000E9433070C94A4070E94960738F00E9472
:100E50009D0720F0952311F00C948D070C949307B7
:100E600011240C9415070E94F20670F3959FC1F3AC
:100E7000950F50E0551F629FF001729FBB27F00D48
:100E8000B11D639FAA27F00DB11DAA1F649F66279D
:100E9000B00DA11D661F829F2227B00DA11D621FEC
:100EA000739FB00DA11D621F839FA00D611D221FA6
:100EB000749F3327A00D611D231F849F600D211D8A
:100EC000822F762F6A2F11249F5750409AF0F1F00D
:100ED00088234AF0EE0FFF1FBB1F661F771F881F76
:100EE00091505040A9F79E3F510580F00C948D071A
:100EF0000C9415075F3FE4F3983ED4F386957795FD
:100F00006795B795F795E7959F5FC1F7FE2B880F1B
:100F1000911D9695879597F9089597F99F6780E8B1
:100F200070E060E008959FEF80EC089500240A943B
:100F30001616170618060906089500240A941216B4
:100F40001306140605060895092E0394000C11F4E7
:100F5000882352F0BB0F40F4BF2B11F460FF04C094
:0E0F60006F5F7F4F8F4F9F4F0895F894FFCF24
:080F6E0054455354494E47005D
:00000001FF
