:100000000C948A000C94A7000C94A7000C94A700F1
:100010000C94A7000C94A7000C94A7000C94A700C4
:100020000C94A7000C94A7000C94A7000C9408064D
:100030000C94A7000C94A7000C94A7000C94A700A4
:100040000C94A7000C94A7000C94A7000C94A70094
:100050000C94A700EE02F302F802FD02020307036C
:100060000C03110316031B03200325032A032F038C
:10007000340339033E03430348034D03520357033C
:100080005C03610366036B03700375037A037F03EC
:1000900084038903AF03B403B903BE03C303C803D6
:1000A000CD03D203D703DC03E103E603EB03F00344
:1000B000F503FA03FF03040409040E0413041804EF
:1000C0001D04220427042C04310436043B0440049C
:1000D00045044A047004740478047C048004840495
:1000E00088048C049004940498049C04A004A40440
:1000F000A804AC04B004B404B804BC04C004C40430
:10010000C804CC04D004D404D804DC04E004E4041F
:10011000E804EC0411241FBECFE5D8E0DEBFCDBF5C
:1001200010E0A0E6B0E0EEEFFCE002C005900D921A
:10013000AC36B107D9F720E0ACE6B0E001C01D92C3
:10014000A437B207E1F70E9439060C947D060C949F
:100150000000CF93DF93CDB7DEB78AE390E02FE1C5
:10016000FC01208387E390E0FC01108284E390E0AF
:10017000FC01108281E390E0FC0110820000DF911D
:10018000CF910895CF93DF9300D0CDB7DEB78983A9
:100190006A838A81813009F074C089818830A8F42B
:1001A0008BE390E02BE330E0F9012081622F29817D
:1001B000422F50E021E030E002C0220F331F4A9569
:1001C000E2F7262BFC012083D6C089818830D8F045
:1001D00089818031C0F488E390E028E330E0F901C0
:1001E0002081622F2981222F30E0A9014850510936
:1001F00021E030E002C0220F331F4A95E2F7262BA0
:10020000FC012083B8C089818031D8F08981883190
:10021000C0F485E390E025E330E0F9012081622F0E
:100220002981222F30E0A9014051510921E030E01D
:1002300002C0220F331F4A95E2F7262BFC012083D0
:100240009AC08981883108F496C08981803208F08B
:1002500092C082E390E022E330E0F9012081622F36
:100260002981222F30E0A9014051510921E030E0DD
:1002700002C0220F331F4A95E2F7262BFC01208390
:100280007AC08A81882309F076C089818830B0F4E9
:100290008BE390E02BE330E0F9012081622F29818C
:1002A000422F50E021E030E002C0220F331F4A9578
:1002B000E2F720952623FC0120835DC089818830E8
:1002C000E0F089818031C8F488E390E028E330E0F1
:1002D000F9012081622F2981222F30E0A9014850A5
:1002E000510921E030E002C0220F331F4A95E2F7A6
:1002F00020952623FC0120833EC089818031E0F0D7
:1003000089818831C8F485E390E025E330E0F90184
:100310002081622F2981222F30E0A901405151090B
:1003200021E030E002C0220F331F4A95E2F720950A
:100330002623FC0120831FC089818831E0F0898158
:100340008032C8F482E390E022E330E0F9012081BA
:10035000622F2981222F30E0A9014051510921E06B
:1003600030E002C0220F331F4A95E2F72095262382
:10037000FC01208300C000000F900F90DF91CF910F
:100380000895CF93DF9300D0CDB7DEB78A838A81FB
:10039000883088F489E390E0FC018081882F90E028
:1003A0002A81222F30E002C0959587952A95E2F7A1
:1003B000817089834AC08A818830B0F08A81803117
:1003C00098F486E390E0FC018081882F90E02A81F8
:1003D000222F30E02850310902C0959587952A9543
:1003E000E2F78170898331C08A818031B0F08A81DF
:1003F000883198F483E390E0FC018081882F90E0BD
:100400002A81222F30E02051310902C0959587952D
:100410002A95E2F78170898318C08A818831A8F013
:100420008A81803290F480E390E0FC018081882F03
:1004300090E02A81222F30E02051310902C09595A9
:1004400087952A95E2F78170898389810F900F90B3
:10045000DF91CF910895CF93DF931F92CDB7DEB791
:10046000898389818830A8F48BE390E02BE330E026
:10047000F9012081622F2981422F50E021E030E0F4
:1004800002C0220F331F4A95E2F72627FC01208382
:100490005AC089818830D8F089818031C0F488E3DE
:1004A00090E028E330E0F9012081622F2981222F9A
:1004B00030E0A9014850510921E030E002C0220F8C
:1004C000331F4A95E2F72627FC0120833CC089812F
:1004D0008031D8F089818831C0F485E390E025E34C
:1004E00030E0F9012081622F2981222F30E0A9011B
:1004F0004051510921E030E002C0220F331F4A95DC
:10050000E2F72627FC0120831EC089818831D8F0BC
:1005100089818032C0F482E390E022E330E0F90187
:100520002081622F2981222F30E0A90140515109F9
:1005300021E030E002C0220F331F4A95E2F7262760
:10054000FC01208300C000000F90DF91CF9108953F
:10055000CF93DF93CDB7DEB78FE590E02FE530E0A6
:10056000F90120812068FC0120830000DF91CF91F8
:100570000895CF93DF93CDB7DEB78FE590E02FE5F9
:1005800030E0F90120812F77FC0120830000DF910A
:10059000CF910895CF93DF93CDB7DEB70000DF9101
:1005A000CF910895CF93DF931F92CDB7DEB78983A4
:1005B0008981882F90E0092E000CAA0BBB0B40E02C
:1005C00050E02FE130E0841B950B2817390708F421
:1005D000A5C0865D9F4FFC010C94770661E080E02A
:1005E0000E94C2009BC061E081E00E94C20096C0F0
:1005F00061E082E00E94C20091C061E083E00E945D
:10060000C2008CC061E084E00E94C20087C061E04B
:1006100085E00E94C20082C061E086E00E94C200C4
:100620007DC061E087E00E94C20078C061E088E0A0
:100630000E94C20073C061E089E00E94C2006EC0E7
:1006400061E08AE00E94C20069C061E08BE00E9424
:10065000C20064C061E08CE00E94C2005FC061E043
:100660008DE00E94C2005AC061E08EE00E94C2008C
:1006700055C061E08FE00E94C20050C061E080E19F
:100680000E94C2004BC061E081E10E94C20046C0EE
:1006900061E082E10E94C20041C061E083E10E940A
:1006A000C2003CC061E084E10E94C20037C061E04A
:1006B00085E10E94C20032C061E086E10E94C20072
:1006C0002DC061E087E10E94C20028C061E088E19E
:1006D0000E94C20023C061E089E10E94C2001EC0E6
:1006E00061E08AE10E94C20019C061E08BE10E94D2
:1006F000C20014C061E08CE10E94C2000FC061E042
:100700008DE10E94C2000AC061E08EE10E94C20039
:1007100005C061E08FE10E94C200000000000F9060
:10072000DF91CF910895CF93DF931F92CDB7DEB7BE
:1007300089838981882F90E0092E000CAA0BBB0BBE
:1007400040E050E02FE130E0841B950B281739077B
:1007500008F4A5C0865B9F4FFC010C94770660E00F
:1007600080E00E94C2009BC060E081E00E94C20065
:1007700096C060E082E00E94C20091C060E083E029
:100780000E94C2008CC060E084E00E94C20087C06A
:1007900060E085E00E94C20082C060E086E00E94C6
:1007A000C2007DC060E087E00E94C20078C060E0C7
:1007B00088E00E94C20073C060E089E00E94C2002D
:1007C0006EC060E08AE00E94C20069C060E08BE019
:1007D0000E94C20064C060E08CE00E94C2005FC062
:1007E00060E08DE00E94C2005AC060E08EE00E948E
:1007F000C20055C060E08FE00E94C20050C060E0BF
:1008000080E10E94C2004BC060E081E10E94C20012
:1008100046C060E082E10E94C20041C060E083E126
:100820000E94C2003CC060E084E10E94C20037C068
:1008300060E085E10E94C20032C060E086E10E9473
:10084000C2002DC060E087E10E94C20028C060E0C5
:1008500088E10E94C20023C060E089E10E94C200DA
:100860001EC060E08AE10E94C20019C060E08BE116
:100870000E94C20014C060E08CE10E94C2000FC060
:1008800060E08DE10E94C2000AC060E08EE10E943B
:10089000C20005C060E08FE10E94C20000000000BD
:1008A0000F90DF91CF910895CF93DF931F92CDB733
:1008B000DEB789838981882F90E0092E000CAA0B6E
:1008C000BB0B40E050E02FE130E0841B950B281774
:1008D000390708F485C086599F4FFC010C947706B0
:1008E00080E00E942B027CC081E00E942B0278C035
:1008F00082E00E942B0274C083E00E942B0270C031
:1009000084E00E942B026CC085E00E942B0268C02C
:1009100086E00E942B0264C087E00E942B0260C028
:1009200088E00E942B025CC089E00E942B0258C024
:100930008AE00E942B0254C08BE00E942B0250C020
:100940008CE00E942B024CC08DE00E942B0248C01C
:100950008EE00E942B0244C08FE00E942B0240C018
:1009600080E10E942B023CC081E10E942B0238C032
:1009700082E10E942B0234C083E10E942B0230C02E
:1009800084E10E942B022CC085E10E942B0228C02A
:1009900086E10E942B0224C087E10E942B0220C026
:1009A00088E10E942B021CC089E10E942B0218C022
:1009B0008AE10E942B0214C08BE10E942B0210C01E
:1009C0008CE10E942B020CC08DE10E942B0208C01A
:1009D0008EE10E942B0204C08FE10E942B020000D6
:1009E00000000F90DF91CF910895CF93DF93CDB7A3
:1009F000DEB780E00E9454040000DF91CF9108959B
:100A0000CF93DF93CDB7DEB781E00E94540400009E
:100A1000DF91CF910895CF93DF93CDB7DEB782E01A
:100A20000E9454040000DF91CF910895CF93DF938B
:100A3000CDB7DEB783E00E9454040000DF91CF9170
:100A40000895CF93DF93CDB7DEB780E90E94E50527
:100A500080E395E00E94F5050000DF91CF910895B5
:100A6000CF93DF93CDB7DEB7809170008F5F809317
:100A70007000809170008330C1F481E08093710038
:100A80001092700080916C0090916D00A0916E00AA
:100A9000B0916F000196A11DB11D80936C009093E1
:100AA0006D00A0936E00B0936F000000DF91CF91B6
:100AB0000895EF92FF920F931F93CF93DF931F92AE
:100AC000CDB7DEB7198234C0E0906C00F0906D00B5
:100AD00000916E0010916F008981282F30E0C901CC
:100AE000880F991F820F931F805A9F4FFC018081AE
:100AF000282F30E040E050E0C801B7010E945506C1
:100B0000DC01CB01892B8A2B8B2B79F48981282F4F
:100B100030E0C901880F991F820F931F8F599F4F93
:100B2000FC0180819181FC01099589818F5F898316
:100B30008981843048F200000F90DF91CF911F919E
:100B40000F91FF90EF900895CF93DF93CDB7DEB76D
:100B500089E590E029E530E0F90120812E7FFC0154
:100B6000208388E590E028E530E0F90120812160CC
:100B7000FC01208383E590E024E0FC012083000059
:100B8000DF91CF910895CF93DF93CDB7DEB789E59D
:100B900090E029E530E0F90120812160FC0120830B
:100BA0000000DF91CF910895CF93DF93CDB7DEB7EB
:100BB00089E590E029E530E0F90120812E7FFC01F4
:100BC00020830000DF91CF910895CF93DF931F9290
:100BD000CDB7DEB7898382E590E02981FC012083CF
:100BE00000000F90DF91CF910895CF93DF9300D055
:100BF000CDB7DEB79A83898389819A8190937300F8
:100C00008093720000000F900F90DF91CF910895B4
:100C10001F920F9200905F000F9211242F933F9329
:100C20004F935F936F937F938F939F93AF93BF93F4
:100C3000EF93FF93CF93DF93CDB7DEB78091720030
:100C400090917300FC0109950000DF91CF91FF9115
:100C5000EF91BF91AF919F918F917F916F915F9134
:100C60004F913F912F910F9000925F000F901F9036
:100C70001895CF93DF93CDB7DEB70E94A9000E94ED
:100C8000A8020E94CA0280E90E94E5050E94A4050C
:100C90000E94C3050E942105809171008130E1F717
:100CA0000E94590510927100F7CFA1E21A2EAA1BDB
:100CB000BB1BFD010DC0AA1FBB1FEE1FFF1FA2170C
:100CC000B307E407F50720F0A21BB30BE40BF50B09
:100CD000661F771F881F991F1A9469F76095709592
:100CE000809590959B01AC01BD01CF010895EE0F59
:0E0CF000FF1F0590F491E02D0994F894FFCFBA
:0C0CFE001EF5042A0005320B05481605FF
:00000001FF
