:100000000C942A000C943F000C943F000C943F0089
:100010000C943F000C943F000C943F000C943F0064
:100020000C943F000C943F000C943F000C943F0054
:100030000C943F000C943F000C943F000C943F0044
:100040000C943F000C943F000C943F000C943F0034
:100050000C943F0011241FBECFE5D8E0DEBFCDBF1A
:1000600010E0A0E6B0E0EEEBF7E102C005900D92E3
:10007000A836B107D9F70E9458090C94DD0B0C94EF
:100080000000CF93DF93CDB7DEB78AE390E02FEF88
:10009000FC01208387E390E027E0FC01208384E3D8
:1000A00090E02FEFFC01208381E390E02FEFFC0133
:1000B00020830000DF91CF910895CF93DF9300D08C
:1000C000CDB7DEB789836A838A81813009F074C035
:1000D00089818830A8F48BE390E02BE330E0F901CC
:1000E0002081622F2981422F50E021E030E002C0C0
:1000F000220F331F4A95E2F7262BFC012083D6C03E
:1001000089818830D8F089818031C0F488E390E01B
:1001100028E330E0F9012081622F2981222F30E08D
:10012000A9014850510921E030E002C0220F331FDD
:100130004A95E2F7262BFC012083B8C089818031E3
:10014000D8F089818831C0F485E390E025E330E080
:10015000F9012081622F2981222F30E0A90140512D
:10016000510921E030E002C0220F331F4A95E2F727
:10017000262BFC0120839AC08981883108F496C01F
:100180008981803208F092C082E390E022E330E07F
:10019000F9012081622F2981222F30E0A9014051ED
:1001A000510921E030E002C0220F331F4A95E2F7E7
:1001B000262BFC0120837AC08A81882309F076C02F
:1001C00089818830B0F48BE390E02BE330E0F901D3
:1001D0002081622F2981422F50E021E030E002C0CF
:1001E000220F331F4A95E2F720952623FC01208336
:1001F0005DC089818830E0F089818031C8F488E36E
:1002000090E028E330E0F9012081622F2981222F3C
:1002100030E0A9014850510921E030E002C0220F2E
:10022000331F4A95E2F720952623FC0120833EC028
:1002300089818031E0F089818831C8F485E390E0DC
:1002400025E330E0F9012081622F2981222F30E05F
:10025000A9014051510921E030E002C0220F331FB3
:100260004A95E2F720952623FC0120831FC089814F
:100270008831E0F089818032C8F482E390E022E3A3
:1002800030E0F9012081622F2981222F30E0A9017D
:100290004051510921E030E002C0220F331F4A953E
:1002A000E2F720952623FC01208300C000000F9078
:1002B0000F90DF91CF910895CF93DF9300D0CDB70A
:1002C000DEB78A838A81883088F489E390E0FC0174
:1002D0008081882F90E02A81222F30E002C09595FE
:1002E00087952A95E2F7817089834AC08A81883090
:1002F000B0F08A81803198F486E390E0FC0180813F
:10030000882F90E02A81222F30E02850310902C046
:10031000959587952A95E2F78170898331C08A8106
:100320008031B0F08A81883198F483E390E0FC0159
:100330008081882F90E02A81222F30E020513109DE
:1003400002C0959587952A95E2F78170898318C038
:100350008A818831A8F08A81803290F480E390E02D
:10036000FC018081882F90E02A81222F30E02051EB
:10037000310902C0959587952A95E2F781708983A6
:1003800089810F900F90DF91CF910895CF93DF93E4
:100390001F92CDB7DEB7898389818830A8F48BE3BB
:1003A00090E02BE330E0F9012081622F2981422F78
:1003B00050E021E030E002C0220F331F4A95E2F7FF
:1003C0002627FC0120835AC089818830D8F0898192
:1003D0008031C0F488E390E028E330E0F901208127
:1003E000622F2981222F30E0A9014850510921E0D4
:1003F00030E002C0220F331F4A95E2F72627FC01A6
:1004000020833CC089818031D8F089818831C0F453
:1004100085E390E025E330E0F9012081622F298116
:10042000222F30E0A9014051510921E030E002C003
:10043000220F331F4A95E2F72627FC0120831EC0B6
:1004400089818831D8F089818032C0F482E390E0DC
:1004500022E330E0F9012081622F2981222F30E050
:10046000A9014051510921E030E002C0220F331FA1
:100470004A95E2F72627FC01208300C000000F9078
:10048000DF91CF9108950F931F93CF93DF93CDB753
:10049000DEB7CC57D1090FB6F894DEBF0FBECDBF83
:1004A0000E94410080E090E0A0E2B2E489839A8358
:1004B000AB83BC838E010D581F4F20E030E04AEF24
:1004C00054E469817A818B819C810E94700BDC01EC
:1004D000CB01F80180839183A283B383CE018D5831
:1004E0009F4F20E030E040E85FE3FC0160817181D4
:1004F000828193810E94500A88234CF4CE0189584E
:100500009F4F21E030E0FC013183208369C0CE01A0
:100510008D589F4F20E03FEF4FE757E4FC0160818B
:100520007181828193810E946B0B18160CF046C07A
:1005300020E030E040E251E469817A818B819C8146
:100540000E94700BDC01CB018E0109581F4FBC01CA
:10055000CD010E94C70ADC01CB01F80191838083A1
:1005600024C0CE0187589F4F28EC30E0FC01318336
:100570002083CE0187589F4FFC0180819181019794
:10058000F1F79E0127583F4FF90191838083CE01F7
:1005900089589F4F9E0129583F4FF9012081318191
:1005A00021503109FC0131832083CE0189589F4FAE
:1005B000FC0180819181892BA1F62CC08E01095804
:1005C0001F4FCE018D589F4FFC0160817181828148
:1005D00093810E94C70ADC01CB01F80191838083DB
:1005E000CE0185589F4F9E0129583F4FF901208128
:1005F0003181FC0131832083CE0185589F4FFC015E
:10060000808191810197F1F79E0125583F4FF901B3
:100610009183808388E20E949E0780E090E0A8E4B6
:10062000B2E48D839E83AF83B8878E01095A1F4F32
:100630002BEA3AEA4AE250E46D817E818F81988507
:100640000E94700BDC01CB01F80180839183A283AF
:10065000B3838E01055A1F4F8D819E81AF81B8856E
:100660009C01AD01BC01CD010E94E409DC01CB017C
:10067000F80180839183A283B383CE01895A9F4F6F
:1006800020E030E040E85FE3FC016081718182811D
:1006900093810E94500A88233CF4CE01815A9F4FD7
:1006A00021E0FC0120832CC1CE01855A9F4F20E020
:1006B0003FEF4FE757E4FC016081718182819381B4
:1006C0000E946B0B18160CF0CDC020E030E04AE71A
:1006D00054E46D817E818F8198850E94550ADC01EA
:1006E000CB019E01205A3F4FF90180839183A28361
:1006F000B3838E010C591F4FCE01805A9F4F20E0CB
:1007000030E04AEF54E4FC01608171818281938181
:100710000E94700BDC01CB01F80180839183A283DE
:10072000B383CE018C599F4F20E030E040E85FE377
:10073000FC0160817181828193810E94500A88232B
:100740004CF4CE0188599F4F21E030E0FC01318309
:1007500020836DC0CE018C599F4F20E03FEF4FE7C3
:1007600057E4FC0160817181828193810E946B0B4F
:1007700018160CF04AC0CE01805A9F4F20E030E09E
:1007800040E251E4FC0160817181828193810E9489
:10079000700BDC01CB018E0108591F4FBC01CD014C
:1007A0000E94C70ADC01CB01F8019183808324C039
:1007B000CE0186599F4F28EC30E0FC013183208325
:1007C000CE0186599F4FFC01808191810197F1F7FD
:1007D0009E0126593F4FF90191838083CE018859AC
:1007E0009F4F9E0128593F4FF901208131812150AF
:1007F0003109FC0131832083CE0188599F4FFC01D0
:1008000080819181892BA1F67BC08E0108591F4FF1
:10081000CE018C599F4FFC0160817181828193814F
:100820000E94C70ADC01CB01F80191838083CE01CD
:1008300084599F4F9E0128593F4FF90120813181F2
:10084000FC0131832083CE0184599F4FFC018081BC
:1008500091810197F1F79E0124593F4FF90191834E
:1008600080834EC0CE01895A9F4F20E030E04FE791
:1008700053E4FC0160817181828193810E946B0B42
:1008800018166CF58E0102591F4FCE01855A9F4FE5
:10089000FC0160817181828193810E94C70ADC0121
:1008A000CB01F80191838083CE0180599F4F9E0137
:1008B00022593F4FF90120813181FC01318320838E
:1008C000CE0180599F4FFC01808191810197F1F702
:1008D0009E0120593F4FF9019183808328C08E01EA
:1008E000015A1F4FCE01895A9F4FFC0160817181CF
:1008F000828193810E94C70ADC01CB01F8018083C9
:10090000CE018E589F4F9E01215A3F4FF901208101
:10091000FC012083CE018E589F4FFC018081282F3F
:100920002A95F1F7CE018E589F4FFC0120838CE071
:100930000E949E0780E090E0A8E4B2E489879A874D
:10094000AB87BC872BEA3AEA4AE250E469857A85AC
:100950008B859C850E94700BDC01CB018BAF9CAF1B
:10096000ADAFBEAF8E01015C1F4F89859A85AB8507
:10097000BC859C01AD01BC01CD010E94E409DC01F4
:10098000CB01F80180839183A283B38320E030E020
:1009900040E85FE36BAD7CAD8DAD9EAD0E94500A2B
:1009A00088233CF4CE018D5B9F4F21E0FC01208326
:1009B00022C1CE01CF9620E03FEF4FE757E4FC0184
:1009C00060817181828193810E946B0B18160CF0FB
:1009D000CDC020E030E04AE754E469857A858B8514
:1009E0009C850E94550ADC01CB019E012C5B3F4F88
:1009F000F90180839183A283B3838E01085B1F4F2B
:100A0000CE018C5B9F4F20E030E04AEF54E4FC01C4
:100A100060817181828193810E94700BDC01CB0126
:100A2000F80180839183A283B383CE01885B9F4FBB
:100A300020E030E040E85FE3FC0160817181828169
:100A400093810E94500A88234CF4CE01845B9F4F0F
:100A500021E030E0FC01318320836DC0CE01885B52
:100A60009F4F20E03FEF4FE757E4FC016081718129
:100A7000828193810E946B0B18160CF04AC0CE0144
:100A80008C5B9F4F20E030E040E251E4FC0160814C
:100A90007181828193810E94700BDC01CB018E01F8
:100AA000045B1F4FBC01CD010E94C70ADC01CB01D2
:100AB000F8019183808324C0CE01825B9F4F28EC94
:100AC00030E0FC0131832083CE01825B9F4FFC012B
:100AD000808191810197F1F79E01225B3F4FF901DF
:100AE00091838083CE01845B9F4F9E01245B3F4FA7
:100AF000F9012081318121503109FC0131832083AA
:100B0000CE01845B9F4FFC0180819181892BA1F6EE
:100B100072C08E01045B1F4FCE01885B9F4FFC01AA
:100B200060817181828193810E94C70ADC01CB01BF
:100B3000F80191838083CE01805B9F4F9E01245BEF
:100B40003F4FF90120813181FC0131832083CE01A7
:100B5000805B9F4FFC01808191810197F1F79E019D
:100B6000205B3F4FF9019183808345C020E030E056
:100B70004FE753E46BAD7CAD8DAD9EAD0E946B0B2A
:100B8000181664F58E010E5A1F4FCE01CF96FC0148
:100B900060817181828193810E94C70ADC01CB014F
:100BA000F80191838083CE018C5A9F4F9E012E5A6B
:100BB0003F4FF90120813181FC0131832083CE0137
:100BC0008C5A9F4FFC01808191810197F1F79E0122
:100BD0002C5A3F4FF9019183808324C08E010D5B15
:100BE0001F4F6BAD7CAD8DAD9EAD0E94C70ADC0181
:100BF000CB01F8018083CE018A5A9F4F9E012D5B65
:100C00003F4FF9012081FC012083CE018A5A9F4F7A
:100C1000FC018081282F2A95F1F7CE018A5A9F4F37
:100C2000FC0120830E94B70780E090E0A0E0B0E4E0
:100C30008D879E87AF87B88B20E030E04AEF54E481
:100C40006D857E858F8598890E94700BDC01CB01B4
:100C500089AB9AABABABBCAB20E030E040E85FE3E4
:100C600069A97AA98BA99CA90E94500A88232CF40F
:100C700081E090E09EAB8DAB3FC020E03FEF4FE7BF
:100C800057E469A97AA98BA99CA90E946B0B181635
:100C90004CF520E030E040E251E46D857E858F85A3
:100CA00098890E94700BDC01CB01BC01CD010E9430
:100CB000C70ADC01CB019EAB8DAB0FC088EC90E086
:100CC00098AF8FAB8FA998AD0197F1F798AF8FAB25
:100CD0008DA99EA901979EAB8DAB8DA99EA9892B4D
:100CE00069F714C069A97AA98BA99CA90E94C70AAF
:100CF000DC01CB019EAB8DAB8DA99EA99AAF89AFCC
:100D000089AD9AAD0197F1F79AAF89AF86E00E945D
:100D10009E0780E090E0A8E4B2E4898B9A8BAB8BCD
:100D2000BC8B2BEA3AEA4AE250E469897A898B89DA
:100D30009C890E94700BDC01CB018D8B9E8BAF8B4D
:100D4000B88F89899A89AB89BC899C01AD01BC01A6
:100D5000CD010E94E409DC01CB01898F9A8FAB8F12
:100D6000BC8F20E030E040E85FE36D897E898F89A9
:100D7000988D0E94500A88231CF481E08D8FB2C0A8
:100D800020E03FEF4FE757E4698D7A8D8B8D9C8D86
:100D90000E946B0B18160CF07BC020E030E04AE795
:100DA00054E469897A898B899C890E94550ADC01FF
:100DB000CB018E8F9F8FA8A3B9A320E030E04AEF2C
:100DC00054E46E8D7F8D88A199A10E94700BDC0187
:100DD000CB018AA39BA3ACA3BDA320E030E040E8F5
:100DE0005FE36AA17BA18CA19DA10E94500A882388
:100DF0002CF481E090E09FA38EA33FC020E03FEF62
:100E00004FE757E46AA17BA18CA19DA10E946B0BC7
:100E100018164CF520E030E040E251E46E8D7F8DF5
:100E200088A199A10E94700BDC01CB01BC01CD010E
:100E30000E94C70ADC01CB019FA38EA30FC088ECE0
:100E400090E099A788A788A599A50197F1F799A798
:100E500088A78EA19FA101979FA38EA38EA19FA17A
:100E6000892B69F73FC06AA17BA18CA19DA10E943B
:100E7000C70ADC01CB019FA38EA38EA19FA19BA7D4
:100E80008AA78AA59BA50197F1F79BA78AA72AC0E5
:100E900020E030E04FE753E46D897E898F89988D9B
:100EA0000E946B0B1816ACF4698D7A8D8B8D9C8D1E
:100EB0000E94C70ADC01CB019DA78CA78CA59DA52C
:100EC0009FA78EA78EA59FA50197F1F79FA78EA735
:100ED0000FC06D897E898F89988D0E94C70ADC01B9
:100EE000CB018D8F8D8D88AB88A98A95F1F788AB62
:100EF0000000C458DF4F0FB6F894DEBF0FBECDBF61
:100F0000DF91CF911F910F910895CF93DF931F929F
:100F1000CDB7DEB7898361E080E10E945D0060E0CB
:100F200081E10E945D0089810E94CF0789810E9432
:100F3000810800000F90DF91CF910895CF93DF9348
:100F40001F92CDB7DEB7898360E080E10E945D002B
:100F500060E081E10E945D0089810E94CF07898164
:100F60000E94810800000F90DF91CF910895CF93E8
:100F7000DF93CDB7DEB781E00E949E070000DF91CE
:100F8000CF910895CF93DF9300D0CDB7DEB789839B
:100F90006A8300000F900F90DF91CF910895CF9357
:100FA000DF93CDB7DEB72F970FB6F894DEBF0FBE35
:100FB000CDBF8F878F85881F8827881F682F86E180
:100FC0000E945D008F8582958695869583708170DD
:100FD000682F85E10E945D008F85829586958770D8
:100FE0008170682F84E10E945D008F8582958F70EB
:100FF0008170682F83E10E945D0061E082E10E94C0
:101000005D0080E090E0A0E8BFE389839A83AB8332
:10101000BC8320E030E04AEF54E469817A818B811F
:101020009C810E94700BDC01CB018D839E83AF837A
:10103000B88720E030E040E85FE36D817E818F81FA
:1010400098850E94500A88232CF481E090E09A87CA
:1010500089873FC020E03FEF4FE757E46D817E81F5
:101060008F8198850E946B0B18164CF520E030E0BC
:1010700040E251E469817A818B819C810E94700BEE
:10108000DC01CB01BC01CD010E94C70ADC01CB0110
:101090009A8789870FC088EC90E09C878B878B8527
:1010A0009C850197F1F79C878B8789859A850197A5
:1010B0009A87898789859A85892B69F714C06D81FC
:1010C0007E818F8198850E94C70ADC01CB019A87B7
:1010D000898789859A859E878D878D859E850197CD
:1010E000F1F79E878D8760E082E10E945D0000003D
:1010F0002F960FB6F894DEBF0FBECDBFDF91CF9114
:101100000895CF93DF93CDB7DEB72F970FB6F8943E
:10111000DEBF0FBECDBF8F878F858695869586955E
:101120008170682F86E10E945D008F858695869587
:101130008170682F85E10E945D008F8586958170A2
:10114000682F84E10E945D008F858170682F83E1A4
:101150000E945D0061E080E10E945D0080E090E01F
:10116000A0E8BFE389839A83AB83BC8320E030E0AF
:101170004AEF54E469817A818B819C810E94700BD3
:10118000DC01CB018D839E83AF83B88720E030E004
:1011900040E85FE36D817E818F8198850E94500ACF
:1011A00088232CF481E090E09A8789873FC020E073
:1011B0003FEF4FE757E46D817E818F8198850E94D4
:1011C0006B0B18164CF520E030E040E251E46981E9
:1011D0007A818B819C810E94700BDC01CB01BC0168
:1011E000CD010E94C70ADC01CB019A8789870FC015
:1011F00088EC90E09C878B878B859C850197F1F725
:101200009C878B8789859A8501979A8789878985A5
:101210009A85892B69F714C06D817E818F819885AD
:101220000E94C70ADC01CB019A87898789859A8544
:101230009E878D878D859E850197F1F79E878D8787
:1012400060E082E10E945D0000002F960FB6F894E6
:10125000DEBF0FBECDBFDF91CF910895CF93DF9357
:1012600000D01F92CDB7DEB79B838A8319820EC050
:101270008981882F90E02A813B81820F931FFC0196
:1012800080810E94850789818F5F89838981882F6A
:1012900090E02A813B81820F931FFC01808188238B
:1012A00039F700000F900F900F90DF91CF910895C4
:1012B000CF93DF93CDB7DEB766970FB6F894DEBF56
:1012C0000FBECDBF0E94430288E0E0E6F0E0DE0101
:1012D0001F9601900D928A95E1F78DE60E94850791
:1012E00080E090E4ACE9B5E489839A83AB83BC8366
:1012F00020E030E04AEF54E469817A818B819C815F
:101300000E94700BDC01CB018D839E83AF83B88775
:1013100020E030E040E85FE36D817E818F81988539
:101320000E94500A88232CF481E090E09A878987F4
:101330003FC020E03FEF4FE757E46D817E818F8112
:1013400098850E946B0B18164CF520E030E040E2C7
:1013500051E469817A818B819C810E94700BDC0150
:10136000CB01BC01CD010E94C70ADC01CB019A87E9
:1013700089870FC088EC90E09C878B878B859C8544
:101380000197F1F79C878B8789859A8501979A87C2
:10139000898789859A85892B69F714C06D817E813B
:1013A0008F8198850E94C70ADC01CB019A878987C3
:1013B00089859A859E878D878D859E850197F1F712
:1013C0009E878D878ACF5058BB27AA270E94FB098A
:1013D0000C94310B0E94230B38F00E942A0B20F052
:1013E00039F49F3F19F426F40C94200B0EF4E09589
:1013F000E7FB0C941A0BE92F0E94420B58F3BA1723
:10140000620773078407950720F079F4A6F50C941A
:10141000640B0EF4E0950B2EBA2FA02D0B01B90131
:1014200090010C01CA01A0011124FF27591B99F05A
:10143000593F50F4503E68F11A16F040A22F232F66
:10144000342F4427585FF3CF469537952795A795B6
:10145000F0405395C9F77EF41F16BA0B620B730B5D
:10146000840BBAF09150A1F0FF0FBB1F661F771FCE
:10147000881FC2F70EC0BA0F621F731F841F48F483
:10148000879577956795B795F7959E3F08F0B0CF0C
:101490009395880F08F09927EE0F979587950895F3
:1014A0000E94F60A08F481E008950E94690A0C94EB
:1014B000310B0E942A0B58F00E94230B40F029F4B4
:1014C0005F3F29F00C941A0B51110C94650B0C948E
:1014D000200B0E94420B68F39923B1F3552391F33B
:1014E000951B550BBB27AA2762177307840738F093
:1014F0009F5F5F4F220F331F441FAA1FA9F335D0F0
:101500000E2E3AF0E0E832D091505040E695001CA3
:10151000CAF72BD0FE2F29D0660F771F881FBB1F5D
:10152000261737074807AB07B0E809F0BB0B802D3B
:10153000BF01FF2793585F4F3AF09E3F510578F067
:101540000C941A0B0C94650B5F3FE4F3983ED4F3B4
:10155000869577956795B795F7959F5FC9F7880F3B
:10156000911D9695879597F90895E1E0660F771F8D
:10157000881FBB1F621773078407BA0720F0621B1E
:10158000730B840BBA0BEE1F88F7E09508950E9449
:101590004A0B88F09F5798F0B92F9927B751B0F0B0
:1015A000E1F0660F771F881F991F1AF0BA95C9F7E7
:1015B00014C0B13091F00E94640BB1E008950C9416
:1015C000640B672F782F8827B85F39F0B93FCCF3C9
:1015D000869577956795B395D9F73EF49095809564
:1015E000709561957F4F8F4F9F4F0895990F000819
:1015F000550FAA0BE0E8FEEF16161706E807F907E5
:10160000C0F012161306E407F50798F0621B730B7F
:10161000840B950B39F40A2661F0232B242B252B00
:1016200021F408950A2609F4A140A6958FEF811DA3
:10163000811D089597F99F6780E870E060E0089544
:101640009FEF80EC089500240A94161617061806DA
:101650000906089500240A941216130614060506B6
:101660000895092E0394000C11F4882352F0BB0F47
:1016700040F4BF2B11F460FF04C06F5F7F4F8F4FAA
:101680009F4F089557FD9058440F551F59F05F3FE5
:1016900071F04795880F97FB991F61F09F3F79F094
:1016A00087950895121613061406551FF2CF469516
:1016B000F1DF08C0161617061806991FF1CF869598
:1016C0007105610508940895E894BB27662777277C
:1016D000CB0197F908950E94F60A08F48FEF089558
:1016E0000E94830B0C94310B0E94230B38F00E9454
:1016F0002A0B20F0952311F00C941A0B0C94200B5C
:1017000011240C94650B0E94420B70F3959FC1F35A
:10171000950F50E0551F629FF001729FBB27F00D9F
:10172000B11D639FAA27F00DB11DAA1F649F6627F4
:10173000B00DA11D661F829F2227B00DA11D621F43
:10174000739FB00DA11D621F839FA00D611D221FFD
:10175000749F3327A00D611D231F849F600D211DE1
:10176000822F762F6A2F11249F5750409AF0F1F064
:1017700088234AF0EE0FFF1FBB1F661F771F881FCD
:1017800091505040A9F79E3F510580F00C941A0BE0
:101790000C94650B5F3FE4F3983ED4F38695779500
:1017A0006795B795F795E7959F5FC1F7FE2B880F73
:0E17B000911D9695879597F90895F894FFCFAF
:0817BE0054455354494E470005
:00000001FF
