:100000000C948A000C94A7000C94A7000C94A700F1
:100010000C94A7000C94A7000C94A7000C94A700C4
:100020000C94A7000C94A7000C94A7000C945A05FC
:100030000C94A7000C94A7000C94A7000C94A700A4
:100040000C94A7000C94A7000C94A7000C94A70094
:100050000C94A700EF02F402F902FE020303080366
:100060000D03120317031C03210326032B03300384
:1000700035033A033F03440349034E035303580334
:100080005D03620367036C03710376037B038003E4
:1000900085038A03B003B503BA03BF03C403C903CE
:1000A000CE03D303D803DD03E203E703EC03F1033C
:1000B000F603FB03000405040A040F0414041904E6
:1000C0001E04230428042D04320437043C04410494
:1000D00046044B047104750479047D04810485048D
:1000E00089048D049104950499049D04A104A50438
:1000F000A904AD04B104B504B904BD04C104C50428
:10010000C904CD04D104D504D904DD04E104E50417
:10011000E904ED0411241FBECFE5D8E0DEBFCDBF5A
:1001200010E0A0E6B0E0E8E8FBE002C005900D9228
:10013000A236B107D9F720E0A2E6B0E001C01D92D7
:10014000A536B207E1F70E948B050C94C2050C940A
:100150000000CF93DF93CDB7DEB78AE390E02FE9BD
:10016000FC01208387E390E020E1FC01208384E30D
:1001700090E0FC01108281E390E0FC01108200001D
:10018000DF91CF910895CF93DF9300D0CDB7DEB745
:1001900089836A838A81813009F074C089818830BB
:1001A000A8F48BE390E02BE330E0F9012081622F8B
:1001B0002981422F50E021E030E002C0220F331F9E
:1001C0004A95E2F7262BFC012083D6C0898188302E
:1001D000D8F089818031C0F488E390E028E330E0F2
:1001E000F9012081622F2981222F30E0A901485096
:1001F000510921E030E002C0220F331F4A95E2F797
:10020000262BFC012083B8C089818031D8F08981F8
:100210008831C0F485E390E025E330E0F9012081E6
:10022000622F2981222F30E0A9014051510921E09C
:1002300030E002C0220F331F4A95E2F7262BFC0163
:1002400020839AC08981883108F496C089818032E0
:1002500008F092C082E390E022E330E0F9012081CF
:10026000622F2981222F30E0A9014051510921E05C
:1002700030E002C0220F331F4A95E2F7262BFC0123
:1002800020837AC08A81882309F076C089818830EA
:10029000B0F48BE390E02BE330E0F9012081622F92
:1002A0002981422F50E021E030E002C0220F331FAD
:1002B0004A95E2F720952623FC0120835DC08981C1
:1002C0008830E0F089818031C8F488E390E028E349
:1002D00030E0F9012081622F2981222F30E0A9012D
:1002E0004850510921E030E002C0220F331F4A95E7
:1002F000E2F720952623FC0120833EC089818031CE
:10030000E0F089818831C8F485E390E025E330E0AE
:10031000F9012081622F2981222F30E0A90140516B
:10032000510921E030E002C0220F331F4A95E2F765
:1003300020952623FC0120831FC089818831E0F0AD
:1003400089818032C8F482E390E022E330E0F90151
:100350002081622F2981222F30E0A90140515109CB
:1003600021E030E002C0220F331F4A95E2F72095CA
:100370002623FC01208300C000000F900F90DF9126
:10038000CF910895CF93DF9300D0CDB7DEB78A83A6
:100390008A81883088F489E390E0FC018081882F8D
:1003A00090E02A81222F30E002C0959587952A950A
:1003B000E2F7817089834AC08A818830B0F08A81EF
:1003C000803198F486E390E0FC018081882F90E0F2
:1003D0002A81222F30E02850310902C09595879557
:1003E0002A95E2F78170898331C08A818031B0F02B
:1003F0008A81883198F483E390E0FC018081882F22
:1004000090E02A81222F30E02051310902C09595D9
:1004100087952A95E2F78170898318C08A8188318F
:10042000A8F08A81803290F480E390E0FC01808122
:10043000882F90E02A81222F30E02051310902C01C
:10044000959587952A95E2F78170898389810F9028
:100450000F90DF91CF910895CF93DF931F92CDB787
:10046000DEB7898389818830A8F48BE390E02BE3A1
:1004700030E0F9012081622F2981422F50E021E0F4
:1004800030E002C0220F331F4A95E2F72627FC0115
:1004900020835AC089818830D8F089818031C0F4A6
:1004A00088E390E028E330E0F9012081622F298180
:1004B000222F30E0A9014850510921E030E002C06C
:1004C000220F331F4A95E2F72627FC0120833CC008
:1004D00089818031D8F089818831C0F485E390E04A
:1004E00025E330E0F9012081622F2981222F30E0BD
:1004F000A9014051510921E030E002C0220F331F11
:100500004A95E2F72627FC0120831EC089818831A5
:10051000D8F089818032C0F482E390E022E330E0B9
:10052000F9012081622F2981222F30E0A901405159
:10053000510921E030E002C0220F331F4A95E2F753
:100540002627FC01208300C000000F90DF91CF918F
:100550000895CF93DF93CDB7DEB78FE590E02FE519
:1005600030E0F90120812068FC0120830000DF9148
:10057000CF910895CF93DF93CDB7DEB78FE590E0AD
:100580002FE530E0F90120812F77FC012083000066
:10059000DF91CF910895CF93DF93CDB7DEB7000001
:1005A000DF91CF910895CF93DF931F92CDB7DEB740
:1005B00089838981882F90E0092E000CAA0BBB0B40
:1005C00040E050E02FE130E0841B950B28173907FD
:1005D00008F4A5C0865D9F4FFC010C94BC0561E04A
:1005E00080E00E94C3009BC061E081E00E94C300E4
:1005F00096C061E082E00E94C30091C061E083E0A8
:100600000E94C3008CC061E084E00E94C30087C0E8
:1006100061E085E00E94C30082C061E086E00E9444
:10062000C3007DC061E087E00E94C30078C061E044
:1006300088E00E94C30073C061E089E00E94C300AB
:100640006EC061E08AE00E94C30069C061E08BE097
:100650000E94C30064C061E08CE00E94C3005FC0E0
:1006600061E08DE00E94C3005AC061E08EE00E940C
:10067000C30055C061E08FE00E94C30050C061E03C
:1006800080E10E94C3004BC061E081E10E94C30091
:1006900046C061E082E10E94C30041C061E083E1A5
:1006A0000E94C3003CC061E084E10E94C30037C0E7
:1006B00061E085E10E94C30032C061E086E10E94F2
:1006C000C3002DC061E087E10E94C30028C061E043
:1006D00088E10E94C30023C061E089E10E94C30059
:1006E0001EC061E08AE10E94C30019C061E08BE195
:1006F0000E94C30014C061E08CE10E94C3000FC0DF
:1007000061E08DE10E94C3000AC061E08EE10E94B9
:10071000C30005C061E08FE10E94C300000000003B
:100720000F90DF91CF910895CF93DF931F92CDB7B4
:10073000DEB789838981882F90E0092E000CAA0BEF
:10074000BB0B40E050E02FE130E0841B950B2817F5
:10075000390708F4A5C0865B9F4FFC010C94BC05CB
:1007600060E080E00E94C3009BC060E081E00E94E6
:10077000C30096C060E082E00E94C30091C060E0C8
:1007800083E00E94C3008CC060E084E00E94C3004C
:1007900087C060E085E00E94C30082C060E086E020
:1007A0000E94C3007DC060E087E00E94C30078C063
:1007B00060E088E00E94C30073C060E089E00E94AE
:1007C000C3006EC060E08AE00E94C30069C060E0C0
:1007D0008BE00E94C30064C060E08CE00E94C30014
:1007E0005FC060E08DE00E94C3005AC060E08EE010
:1007F0000E94C30055C060E08FE00E94C30050C05B
:1008000060E080E10E94C3004BC060E081E10E9493
:10081000C30046C060E082E10E94C30041C060E0C6
:1008200083E10E94C3003CC060E084E10E94C300F9
:1008300037C060E085E10E94C30032C060E086E11D
:100840000E94C3002DC060E087E10E94C30028C061
:1008500060E088E10E94C30023C060E089E10E945B
:10086000C3001EC060E08AE10E94C30019C060E0BE
:100870008BE10E94C30014C060E08CE10E94C300C1
:100880000FC060E08DE10E94C3000AC060E08EE10D
:100890000E94C30005C060E08FE10E94C300000019
:1008A00000000F90DF91CF910895CF93DF931F92B7
:1008B000CDB7DEB789838981882F90E0092E000C9F
:1008C000AA0BBB0B40E050E02FE130E0841B950BFE
:1008D0002817390708F485C086599F4FFC010C94EE
:1008E000BC0580E00E942C027CC081E00E942C02AA
:1008F00078C082E00E942C0274C083E00E942C0227
:1009000070C084E00E942C026CC085E00E942C0222
:1009100068C086E00E942C0264C087E00E942C021E
:1009200060C088E00E942C025CC089E00E942C021A
:1009300058C08AE00E942C0254C08BE00E942C0216
:1009400050C08CE00E942C024CC08DE00E942C0212
:1009500048C08EE00E942C0244C08FE00E942C020E
:1009600040C080E10E942C023CC081E10E942C0228
:1009700038C082E10E942C0234C083E10E942C0224
:1009800030C084E10E942C022CC085E10E942C0220
:1009900028C086E10E942C0224C087E10E942C021C
:1009A00020C088E10E942C021CC089E10E942C0218
:1009B00018C08AE10E942C0214C08BE10E942C0214
:1009C00010C08CE10E942C020CC08DE10E942C0210
:1009D00008C08EE10E942C0204C08FE10E942C020C
:1009E000000000000F90DF91CF910895CF93DF9327
:1009F000CDB7DEB789E590E029E530E0F901208147
:100A00002E7FFC01208388E590E028E530E0F901A5
:100A100020812160FC01208383E590E025E0FC013A
:100A200020830000DF91CF910895CF93DF93CDB75E
:100A3000DEB789E590E029E530E0F9012081216009
:100A4000FC0120830000DF91CF910895CF93DF93C5
:100A5000CDB7DEB789E590E029E530E0F9012081E6
:100A60002E7FFC0120830000DF91CF910895CF936A
:100A7000DF931F92CDB7DEB7898382E590E02981AD
:100A8000FC01208300000F90DF91CF910895CF9358
:100A9000DF9300D0CDB7DEB79A83898389819A81AD
:100AA000909363008093620000000F900F90DF919D
:100AB000CF9108951F920F9200905F000F92112422
:100AC0002F933F934F935F936F937F938F939F9356
:100AD000AF93BF93EF93FF93CF93DF93CDB7DEB781
:100AE0008091620090916300FC0109950000DF9104
:100AF000CF91FF91EF91BF91AF919F918F917F9196
:100B00006F915F914F913F912F910F9000925F00F5
:100B10000F901F901895CF93DF93CDB7DEB70E944B
:100B2000A9000E94CB020E94F60482EA95E00E948E
:100B300047050E94A9020E941505809160000E944D
:100B40003705FFCFCF93DF93CDB7DEB78091640039
:100B50008F5F80936400809164008B3049F48091B2
:100B600060000E94370587E00E94550410926400DF
:100B70000000DF91CF910895EE0FFF1F0590F491D3
:080B8000E02D0994F894FFCF69
:020B8800520019
:00000001FF
